{
  "_format": "hh-sol-artifact-1",
  "contractName": "PurchaseNFTOverTime",
  "sourceName": "contracts/PurchaseNFTOverTime.sol",
  "abi": [
    {
      "inputs": [],
      "stateMutability": "nonpayable",
      "type": "constructor"
    },
    {
      "inputs": [
        {
          "internalType": "address",
          "name": "_seller",
          "type": "address"
        },
        {
          "internalType": "address",
          "name": "_tokenAddress",
          "type": "address"
        },
        {
          "internalType": "uint256",
          "name": "_tokenId",
          "type": "uint256"
        },
        {
          "internalType": "int96",
          "name": "_flowrate",
          "type": "int96"
        },
        {
          "internalType": "uint256",
          "name": "_flow",
          "type": "uint256"
        },
        {
          "internalType": "address",
          "name": "_erc20",
          "type": "address"
        },
        {
          "internalType": "contract ISuperToken",
          "name": "token",
          "type": "address"
        }
      ],
      "name": "BuyNFTOverTime",
      "outputs": [],
      "stateMutability": "payable",
      "type": "function"
    },
    {
      "inputs": [
        {
          "internalType": "address",
          "name": "",
          "type": "address"
        },
        {
          "internalType": "uint256",
          "name": "",
          "type": "uint256"
        }
      ],
      "name": "addressToBuyer",
      "outputs": [
        {
          "internalType": "address",
          "name": "user",
          "type": "address"
        },
        {
          "internalType": "address",
          "name": "seller",
          "type": "address"
        },
        {
          "internalType": "address",
          "name": "tokenAddress",
          "type": "address"
        },
        {
          "internalType": "uint256",
          "name": "tokenId",
          "type": "uint256"
        },
        {
          "internalType": "int96",
          "name": "flowRate",
          "type": "int96"
        },
        {
          "internalType": "uint256",
          "name": "timeStarted",
          "type": "uint256"
        },
        {
          "internalType": "uint256",
          "name": "timeStopped",
          "type": "uint256"
        },
        {
          "internalType": "uint256",
          "name": "estimatedTime",
          "type": "uint256"
        },
        {
          "internalType": "uint256",
          "name": "price",
          "type": "uint256"
        }
      ],
      "stateMutability": "view",
      "type": "function"
    },
    {
      "inputs": [
        {
          "internalType": "address",
          "name": "",
          "type": "address"
        },
        {
          "internalType": "uint256",
          "name": "",
          "type": "uint256"
        }
      ],
      "name": "addressToTokens",
      "outputs": [
        {
          "internalType": "uint256",
          "name": "tokenId",
          "type": "uint256"
        },
        {
          "internalType": "address",
          "name": "tokenAddress",
          "type": "address"
        },
        {
          "internalType": "address",
          "name": "seller",
          "type": "address"
        },
        {
          "internalType": "address",
          "name": "buyer",
          "type": "address"
        },
        {
          "internalType": "uint256",
          "name": "price",
          "type": "uint256"
        },
        {
          "internalType": "bool",
          "name": "isSold",
          "type": "bool"
        }
      ],
      "stateMutability": "view",
      "type": "function"
    },
    {
      "inputs": [],
      "name": "admin",
      "outputs": [
        {
          "internalType": "address",
          "name": "",
          "type": "address"
        }
      ],
      "stateMutability": "view",
      "type": "function"
    },
    {
      "inputs": [
        {
          "internalType": "uint256",
          "name": "",
          "type": "uint256"
        }
      ],
      "name": "buyers",
      "outputs": [
        {
          "internalType": "address",
          "name": "",
          "type": "address"
        }
      ],
      "stateMutability": "view",
      "type": "function"
    },
    {
      "inputs": [
        {
          "internalType": "uint256",
          "name": "_tokenId",
          "type": "uint256"
        },
        {
          "internalType": "address",
          "name": "_tokenAddress",
          "type": "address"
        }
      ],
      "name": "cancelSale",
      "outputs": [],
      "stateMutability": "nonpayable",
      "type": "function"
    },
    {
      "inputs": [
        {
          "internalType": "contract ISuperToken",
          "name": "token",
          "type": "address"
        },
        {
          "internalType": "address",
          "name": "receiver",
          "type": "address"
        },
        {
          "internalType": "int96",
          "name": "flowRate",
          "type": "int96"
        }
      ],
      "name": "createFlowFromContract",
      "outputs": [],
      "stateMutability": "nonpayable",
      "type": "function"
    },
    {
      "inputs": [
        {
          "internalType": "contract ISuperToken",
          "name": "token",
          "type": "address"
        },
        {
          "internalType": "int96",
          "name": "flowRate",
          "type": "int96"
        }
      ],
      "name": "createFlowIntoContract",
      "outputs": [],
      "stateMutability": "nonpayable",
      "type": "function"
    },
    {
      "inputs": [
        {
          "internalType": "contract ISuperToken",
          "name": "token",
          "type": "address"
        },
        {
          "internalType": "address",
          "name": "receiver",
          "type": "address"
        }
      ],
      "name": "deleteFlowFromContract",
      "outputs": [],
      "stateMutability": "nonpayable",
      "type": "function"
    },
    {
      "inputs": [
        {
          "internalType": "contract ISuperToken",
          "name": "token",
          "type": "address"
        },
        {
          "internalType": "address",
          "name": "_buyer",
          "type": "address"
        }
      ],
      "name": "deleteFlowIntoContract",
      "outputs": [],
      "stateMutability": "nonpayable",
      "type": "function"
    },
    {
      "inputs": [
        {
          "internalType": "uint256",
          "name": "_price",
          "type": "uint256"
        },
        {
          "internalType": "uint256",
          "name": "_tokenId",
          "type": "uint256"
        },
        {
          "internalType": "address",
          "name": "_tokenAddress",
          "type": "address"
        }
      ],
      "name": "editSale",
      "outputs": [],
      "stateMutability": "nonpayable",
      "type": "function"
    },
    {
      "inputs": [
        {
          "internalType": "address",
          "name": "_buyer",
          "type": "address"
        }
      ],
      "name": "getBuyerData",
      "outputs": [
        {
          "components": [
            {
              "internalType": "address",
              "name": "user",
              "type": "address"
            },
            {
              "internalType": "address",
              "name": "seller",
              "type": "address"
            },
            {
              "internalType": "address",
              "name": "tokenAddress",
              "type": "address"
            },
            {
              "internalType": "uint256",
              "name": "tokenId",
              "type": "uint256"
            },
            {
              "internalType": "int96",
              "name": "flowRate",
              "type": "int96"
            },
            {
              "internalType": "uint256",
              "name": "timeStarted",
              "type": "uint256"
            },
            {
              "internalType": "uint256",
              "name": "timeStopped",
              "type": "uint256"
            },
            {
              "internalType": "uint256",
              "name": "estimatedTime",
              "type": "uint256"
            },
            {
              "internalType": "uint256",
              "name": "price",
              "type": "uint256"
            }
          ],
          "internalType": "struct PurchaseNFTOverTime.Buyer[]",
          "name": "",
          "type": "tuple[]"
        }
      ],
      "stateMutability": "view",
      "type": "function"
    },
    {
      "inputs": [],
      "name": "getBuyers",
      "outputs": [
        {
          "internalType": "address[]",
          "name": "",
          "type": "address[]"
        }
      ],
      "stateMutability": "view",
      "type": "function"
    },
    {
      "inputs": [
        {
          "internalType": "address",
          "name": "_seller",
          "type": "address"
        }
      ],
      "name": "getSellerData",
      "outputs": [
        {
          "components": [
            {
              "internalType": "uint256",
              "name": "tokenId",
              "type": "uint256"
            },
            {
              "internalType": "address",
              "name": "tokenAddress",
              "type": "address"
            },
            {
              "internalType": "address",
              "name": "seller",
              "type": "address"
            },
            {
              "internalType": "address",
              "name": "buyer",
              "type": "address"
            },
            {
              "internalType": "uint256",
              "name": "price",
              "type": "uint256"
            },
            {
              "internalType": "bool",
              "name": "isSold",
              "type": "bool"
            }
          ],
          "internalType": "struct PurchaseNFTOverTime.Tokens[]",
          "name": "",
          "type": "tuple[]"
        }
      ],
      "stateMutability": "view",
      "type": "function"
    },
    {
      "inputs": [],
      "name": "getSellers",
      "outputs": [
        {
          "internalType": "address[]",
          "name": "",
          "type": "address[]"
        }
      ],
      "stateMutability": "view",
      "type": "function"
    },
    {
      "inputs": [
        {
          "internalType": "address",
          "name": "",
          "type": "address"
        }
      ],
      "name": "isBuyerAdded",
      "outputs": [
        {
          "internalType": "bool",
          "name": "",
          "type": "bool"
        }
      ],
      "stateMutability": "view",
      "type": "function"
    },
    {
      "inputs": [
        {
          "internalType": "address",
          "name": "",
          "type": "address"
        },
        {
          "internalType": "address",
          "name": "",
          "type": "address"
        },
        {
          "internalType": "uint256",
          "name": "",
          "type": "uint256"
        },
        {
          "internalType": "bytes",
          "name": "",
          "type": "bytes"
        }
      ],
      "name": "onERC721Received",
      "outputs": [
        {
          "internalType": "bytes4",
          "name": "",
          "type": "bytes4"
        }
      ],
      "stateMutability": "pure",
      "type": "function"
    },
    {
      "inputs": [
        {
          "internalType": "address",
          "name": "_buyer",
          "type": "address"
        },
        {
          "internalType": "address",
          "name": "_tokenAddress",
          "type": "address"
        },
        {
          "internalType": "address",
          "name": "_erc20",
          "type": "address"
        },
        {
          "internalType": "uint256",
          "name": "_tokenId",
          "type": "uint256"
        },
        {
          "internalType": "contract ISuperToken",
          "name": "token",
          "type": "address"
        }
      ],
      "name": "purchaseComplete",
      "outputs": [],
      "stateMutability": "nonpayable",
      "type": "function"
    },
    {
      "inputs": [
        {
          "internalType": "uint256",
          "name": "_tokenId",
          "type": "uint256"
        },
        {
          "internalType": "uint256",
          "name": "_price",
          "type": "uint256"
        },
        {
          "internalType": "address",
          "name": "_tokenAddress",
          "type": "address"
        }
      ],
      "name": "putOnSale",
      "outputs": [],
      "stateMutability": "nonpayable",
      "type": "function"
    },
    {
      "inputs": [
        {
          "internalType": "address",
          "name": "",
          "type": "address"
        }
      ],
      "name": "sellerAdded",
      "outputs": [
        {
          "internalType": "bool",
          "name": "",
          "type": "bool"
        }
      ],
      "stateMutability": "view",
      "type": "function"
    },
    {
      "inputs": [
        {
          "internalType": "uint256",
          "name": "",
          "type": "uint256"
        }
      ],
      "name": "sellers",
      "outputs": [
        {
          "internalType": "address",
          "name": "",
          "type": "address"
        }
      ],
      "stateMutability": "view",
      "type": "function"
    },
    {
      "inputs": [
        {
          "internalType": "address",
          "name": "_buyer",
          "type": "address"
        },
        {
          "internalType": "address",
          "name": "_tokenAddress",
          "type": "address"
        },
        {
          "internalType": "address",
          "name": "_erc20",
          "type": "address"
        },
        {
          "internalType": "uint256",
          "name": "_tokenId",
          "type": "uint256"
        },
        {
          "internalType": "uint256",
          "name": "returnValue",
          "type": "uint256"
        },
        {
          "internalType": "contract ISuperToken",
          "name": "token",
          "type": "address"
        }
      ],
      "name": "streamStoppedByUser",
      "outputs": [],
      "stateMutability": "nonpayable",
      "type": "function"
    },
    {
      "inputs": [
        {
          "internalType": "contract ISuperToken",
          "name": "token",
          "type": "address"
        },
        {
          "internalType": "address",
          "name": "receiver",
          "type": "address"
        },
        {
          "internalType": "int96",
          "name": "flowRate",
          "type": "int96"
        }
      ],
      "name": "updateFlowFromContract",
      "outputs": [],
      "stateMutability": "nonpayable",
      "type": "function"
    },
    {
      "inputs": [
        {
          "internalType": "contract ISuperToken",
          "name": "token",
          "type": "address"
        },
        {
          "internalType": "int96",
          "name": "flowRate",
          "type": "int96"
        },
        {
          "internalType": "address",
          "name": "_buyer",
          "type": "address"
        }
      ],
      "name": "updateFlowIntoContract",
      "outputs": [],
      "stateMutability": "nonpayable",
      "type": "function"
    }
  ],
  "bytecode": "0x608060405234801561001057600080fd5b50336000806101000a81548173ffffffffffffffffffffffffffffffffffffffff021916908373ffffffffffffffffffffffffffffffffffffffff160217905550615ee680620000616000396000f3fe60806040526004361061014a5760003560e01c806398a041b1116100b6578063c3d7ec051161006f578063c3d7ec05146104ab578063cee26ed5146104e8578063d6bf522114610525578063f2aa82181461054e578063f64bfaba1461058b578063f851a440146105b65761014a565b806398a041b1146103c2578063a5510b32146103eb578063abb9a5ab14610414578063b9f7b12b1461043d578063bcedb98314610466578063c2f7c654146104825761014a565b80637ee454cb116101085780637ee454cb14610295578063813d2ad8146102c05780638714a76a146102e95780638a9f817c1461032b5780638bab49c5146103705780638d85d3b3146103995761014a565b8062fb77be1461014f578063097e69ef14610178578063097e7ca6146101a1578063150b7a02146101de57806319e406a11461021b5780637e7fbfb614610258575b600080fd5b34801561015b57600080fd5b5061017660048036038101906101719190614a2a565b6105e1565b005b34801561018457600080fd5b5061019f600480360381019061019a9190614ade565b610fbf565b005b3480156101ad57600080fd5b506101c860048036038101906101c39190614b31565b610ff0565b6040516101d59190614b79565b60405180910390f35b3480156101ea57600080fd5b5061020560048036038101906102009190614bf9565b611010565b6040516102129190614cbc565b60405180910390f35b34801561022757600080fd5b50610242600480360381019061023d9190614b31565b611025565b60405161024f9190614e2e565b60405180910390f35b34801561026457600080fd5b5061027f600480360381019061027a9190614b31565b6111f4565b60405161028c9190614fc6565b60405180910390f35b3480156102a157600080fd5b506102aa6113e4565b6040516102b79190615097565b60405180910390f35b3480156102cc57600080fd5b506102e760048036038101906102e291906150b9565b611472565b005b3480156102f557600080fd5b50610310600480360381019061030b91906150f9565b61195b565b60405161032296959493929190615157565b60405180910390f35b34801561033757600080fd5b50610352600480360381019061034d91906150f9565b611a21565b604051610367999897969594939291906151c7565b60405180910390f35b34801561037c57600080fd5b5061039760048036038101906103929190615254565b611af9565b005b3480156103a557600080fd5b506103c060048036038101906103bb91906152a7565b611b2c565b005b3480156103ce57600080fd5b506103e960048036038101906103e491906152fa565b611e91565b005b3480156103f757600080fd5b50610412600480360381019061040d919061533a565b611ec1565b005b34801561042057600080fd5b5061043b6004803603810190610436919061537a565b611ef3565b005b34801561044957600080fd5b50610464600480360381019061045f9190614ade565b612c4a565b005b610480600480360381019061047b9190615407565b612c7b565b005b34801561048e57600080fd5b506104a960048036038101906104a491906152fa565b6135ed565b005b3480156104b757600080fd5b506104d260048036038101906104cd9190614b31565b61361d565b6040516104df9190614b79565b60405180910390f35b3480156104f457600080fd5b5061050f600480360381019061050a91906154a9565b61363d565b60405161051c91906154d6565b60405180910390f35b34801561053157600080fd5b5061054c600480360381019061054791906152a7565b61367c565b005b34801561055a57600080fd5b50610575600480360381019061057091906154a9565b6139ea565b60405161058291906154d6565b60405180910390f35b34801561059757600080fd5b506105a0613a29565b6040516105ad9190615097565b60405180910390f35b3480156105c257600080fd5b506105cb613ab7565b6040516105d891906154d6565b60405180910390f35b60008054906101000a900473ffffffffffffffffffffffffffffffffffffffff1673ffffffffffffffffffffffffffffffffffffffff163373ffffffffffffffffffffffffffffffffffffffff161461066f576040517f08c379a00000000000000000000000000000000000000000000000000000000081526004016106669061554e565b60405180910390fd5b60005b600660008773ffffffffffffffffffffffffffffffffffffffff1673ffffffffffffffffffffffffffffffffffffffff16815260200190815260200160002080549050811015610fb7578473ffffffffffffffffffffffffffffffffffffffff16600660008873ffffffffffffffffffffffffffffffffffffffff1673ffffffffffffffffffffffffffffffffffffffff16815260200190815260200160002082815481106107245761072361556e565b5b906000526020600020906009020160020160009054906101000a900473ffffffffffffffffffffffffffffffffffffffff1673ffffffffffffffffffffffffffffffffffffffff161480156107da575082600660008873ffffffffffffffffffffffffffffffffffffffff1673ffffffffffffffffffffffffffffffffffffffff16815260200190815260200160002082815481106107c6576107c561556e565b5b906000526020600020906009020160030154145b15610fa457600660008773ffffffffffffffffffffffffffffffffffffffff1673ffffffffffffffffffffffffffffffffffffffff16815260200190815260200160002081815481106108305761082f61556e565b5b9060005260206000209060090201600701544210610fa3576000600660008873ffffffffffffffffffffffffffffffffffffffff1673ffffffffffffffffffffffffffffffffffffffff168152602001908152602001600020828154811061089b5761089a61556e565b5b90600052602060002090600902016006015403610fa257600660008773ffffffffffffffffffffffffffffffffffffffff1673ffffffffffffffffffffffffffffffffffffffff16815260200190815260200160002081815481106109035761090261556e565b5b906000526020600020906009020160040160009054906101000a9004600b0b600b0b61095033308573ffffffffffffffffffffffffffffffffffffffff16613adb9092919063ffffffff16565b600b0b03610967576109628287611e91565b610a17565b610a1682600660008973ffffffffffffffffffffffffffffffffffffffff1673ffffffffffffffffffffffffffffffffffffffff16815260200190815260200160002083815481106109bc576109bb61556e565b5b906000526020600020906009020160040160009054906101000a9004600b0b610a0633308773ffffffffffffffffffffffffffffffffffffffff16613adb9092919063ffffffff16565b610a1091906155cc565b88611af9565b5b600660008773ffffffffffffffffffffffffffffffffffffffff1673ffffffffffffffffffffffffffffffffffffffff1681526020019081526020016000208181548110610a6857610a6761556e565b5b906000526020600020906009020160040160009054906101000a9004600b0b600b0b610b3730600660008a73ffffffffffffffffffffffffffffffffffffffff1673ffffffffffffffffffffffffffffffffffffffff1681526020019081526020016000208481548110610adf57610ade61556e565b5b906000526020600020906009020160010160009054906101000a900473ffffffffffffffffffffffffffffffffffffffff168573ffffffffffffffffffffffffffffffffffffffff16613adb9092919063ffffffff16565b600b0b03610bd057610bcb82600660008973ffffffffffffffffffffffffffffffffffffffff1673ffffffffffffffffffffffffffffffffffffffff1681526020019081526020016000208381548110610b9457610b9361556e565b5b906000526020600020906009020160010160009054906101000a900473ffffffffffffffffffffffffffffffffffffffff166135ed565b610d84565b610d8382600660008973ffffffffffffffffffffffffffffffffffffffff1673ffffffffffffffffffffffffffffffffffffffff1681526020019081526020016000208381548110610c2557610c2461556e565b5b906000526020600020906009020160010160009054906101000a900473ffffffffffffffffffffffffffffffffffffffff16600660008a73ffffffffffffffffffffffffffffffffffffffff1673ffffffffffffffffffffffffffffffffffffffff1681526020019081526020016000208481548110610ca857610ca761556e565b5b906000526020600020906009020160040160009054906101000a9004600b0b610d7430600660008d73ffffffffffffffffffffffffffffffffffffffff1673ffffffffffffffffffffffffffffffffffffffff1681526020019081526020016000208781548110610d1c57610d1b61556e565b5b906000526020600020906009020160010160009054906101000a900473ffffffffffffffffffffffffffffffffffffffff168873ffffffffffffffffffffffffffffffffffffffff16613adb9092919063ffffffff16565b610d7e9190615630565b610fbf565b5b600660008773ffffffffffffffffffffffffffffffffffffffff1673ffffffffffffffffffffffffffffffffffffffff1681526020019081526020016000208181548110610dd557610dd461556e565b5b906000526020600020906009020160070154600660008873ffffffffffffffffffffffffffffffffffffffff1673ffffffffffffffffffffffffffffffffffffffff1681526020019081526020016000208281548110610e3857610e3761556e565b5b9060005260206000209060090201600601819055508373ffffffffffffffffffffffffffffffffffffffff1663a9059cbb87600660008a73ffffffffffffffffffffffffffffffffffffffff1673ffffffffffffffffffffffffffffffffffffffff1681526020019081526020016000208481548110610ebb57610eba61556e565b5b9060005260206000209060090201600801546040518363ffffffff1660e01b8152600401610eea929190615694565b6020604051808303816000875af1158015610f09573d6000803e3d6000fd5b505050506040513d601f19601f82011682018060405250810190610f2d91906156e9565b508473ffffffffffffffffffffffffffffffffffffffff166342842e0e3088866040518463ffffffff1660e01b8152600401610f6b93929190615716565b600060405180830381600087803b158015610f8557600080fd5b505af1158015610f99573d6000803e3d6000fd5b50505050610fb7565b5b5b8080610faf9061574d565b915050610672565b505050505050565b610fea82828573ffffffffffffffffffffffffffffffffffffffff16613b7b9092919063ffffffff16565b50505050565b60026020528060005260406000206000915054906101000a900460ff1681565b600063150b7a0260e01b905095945050505050565b6060600360008373ffffffffffffffffffffffffffffffffffffffff1673ffffffffffffffffffffffffffffffffffffffff168152602001908152602001600020805480602002602001604051908101604052809291908181526020016000905b828210156111e957838290600052602060002090600602016040518060c0016040529081600082015481526020016001820160009054906101000a900473ffffffffffffffffffffffffffffffffffffffff1673ffffffffffffffffffffffffffffffffffffffff1673ffffffffffffffffffffffffffffffffffffffff1681526020016002820160009054906101000a900473ffffffffffffffffffffffffffffffffffffffff1673ffffffffffffffffffffffffffffffffffffffff1673ffffffffffffffffffffffffffffffffffffffff1681526020016003820160009054906101000a900473ffffffffffffffffffffffffffffffffffffffff1673ffffffffffffffffffffffffffffffffffffffff1673ffffffffffffffffffffffffffffffffffffffff168152602001600482015481526020016005820160009054906101000a900460ff16151515158152505081526020019060010190611086565b505050509050919050565b6060600660008373ffffffffffffffffffffffffffffffffffffffff1673ffffffffffffffffffffffffffffffffffffffff168152602001908152602001600020805480602002602001604051908101604052809291908181526020016000905b828210156113d95783829060005260206000209060090201604051806101200160405290816000820160009054906101000a900473ffffffffffffffffffffffffffffffffffffffff1673ffffffffffffffffffffffffffffffffffffffff1673ffffffffffffffffffffffffffffffffffffffff1681526020016001820160009054906101000a900473ffffffffffffffffffffffffffffffffffffffff1673ffffffffffffffffffffffffffffffffffffffff1673ffffffffffffffffffffffffffffffffffffffff1681526020016002820160009054906101000a900473ffffffffffffffffffffffffffffffffffffffff1673ffffffffffffffffffffffffffffffffffffffff1673ffffffffffffffffffffffffffffffffffffffff168152602001600382015481526020016004820160009054906101000a9004600b0b600b0b600b0b815260200160058201548152602001600682015481526020016007820154815260200160088201548152505081526020019060010190611255565b505050509050919050565b6060600180548060200260200160405190810160405280929190818152602001828054801561146857602002820191906000526020600020905b8160009054906101000a900473ffffffffffffffffffffffffffffffffffffffff1673ffffffffffffffffffffffffffffffffffffffff168152602001906001019080831161141e575b5050505050905090565b60005b600360003373ffffffffffffffffffffffffffffffffffffffff1673ffffffffffffffffffffffffffffffffffffffff168152602001908152602001600020805490508110156119565782600360003373ffffffffffffffffffffffffffffffffffffffff1673ffffffffffffffffffffffffffffffffffffffff16815260200190815260200160002082815481106115115761151061556e565b5b9060005260206000209060060201600001541480156115dd57508173ffffffffffffffffffffffffffffffffffffffff16600360003373ffffffffffffffffffffffffffffffffffffffff1673ffffffffffffffffffffffffffffffffffffffff16815260200190815260200160002082815481106115935761159261556e565b5b906000526020600020906006020160010160009054906101000a900473ffffffffffffffffffffffffffffffffffffffff1673ffffffffffffffffffffffffffffffffffffffff16145b15611943573373ffffffffffffffffffffffffffffffffffffffff16600360003373ffffffffffffffffffffffffffffffffffffffff1673ffffffffffffffffffffffffffffffffffffffff168152602001908152602001600020828154811061164a5761164961556e565b5b906000526020600020906006020160020160009054906101000a900473ffffffffffffffffffffffffffffffffffffffff1673ffffffffffffffffffffffffffffffffffffffff16148015611712575060001515600360003373ffffffffffffffffffffffffffffffffffffffff1673ffffffffffffffffffffffffffffffffffffffff16815260200190815260200160002082815481106116ef576116ee61556e565b5b906000526020600020906006020160050160009054906101000a900460ff161515145b1561190857600360003373ffffffffffffffffffffffffffffffffffffffff1673ffffffffffffffffffffffffffffffffffffffff16815260200190815260200160002081815481106117685761176761556e565b5b906000526020600020906006020160010160009054906101000a900473ffffffffffffffffffffffffffffffffffffffff1673ffffffffffffffffffffffffffffffffffffffff166342842e0e3033866040518463ffffffff1660e01b81526004016117d693929190615716565b600060405180830381600087803b1580156117f057600080fd5b505af1158015611804573d6000803e3d6000fd5b50505050600360003373ffffffffffffffffffffffffffffffffffffffff1673ffffffffffffffffffffffffffffffffffffffff16815260200190815260200160002081815481106118595761185861556e565b5b90600052602060002090600602016000808201600090556001820160006101000a81549073ffffffffffffffffffffffffffffffffffffffff02191690556002820160006101000a81549073ffffffffffffffffffffffffffffffffffffffff02191690556003820160006101000a81549073ffffffffffffffffffffffffffffffffffffffff021916905560048201600090556005820160006101000a81549060ff02191690555050611956565b6040517f08c379a000000000000000000000000000000000000000000000000000000000815260040161193a90615807565b60405180910390fd5b808061194e9061574d565b915050611475565b505050565b6003602052816000526040600020818154811061197757600080fd5b9060005260206000209060060201600091509150508060000154908060010160009054906101000a900473ffffffffffffffffffffffffffffffffffffffff16908060020160009054906101000a900473ffffffffffffffffffffffffffffffffffffffff16908060030160009054906101000a900473ffffffffffffffffffffffffffffffffffffffff16908060040154908060050160009054906101000a900460ff16905086565b60066020528160005260406000208181548110611a3d57600080fd5b9060005260206000209060090201600091509150508060000160009054906101000a900473ffffffffffffffffffffffffffffffffffffffff16908060010160009054906101000a900473ffffffffffffffffffffffffffffffffffffffff16908060020160009054906101000a900473ffffffffffffffffffffffffffffffffffffffff16908060030154908060040160009054906101000a9004600b0b908060050154908060060154908060070154908060080154905089565b611b268130848673ffffffffffffffffffffffffffffffffffffffff16613bdf909392919063ffffffff16565b50505050565b60005b600360003373ffffffffffffffffffffffffffffffffffffffff1673ffffffffffffffffffffffffffffffffffffffff16815260200190815260200160002080549050811015611e8b5782600360003373ffffffffffffffffffffffffffffffffffffffff1673ffffffffffffffffffffffffffffffffffffffff1681526020019081526020016000208281548110611bcb57611bca61556e565b5b906000526020600020906006020160000154148015611c9757508173ffffffffffffffffffffffffffffffffffffffff16600360003373ffffffffffffffffffffffffffffffffffffffff1673ffffffffffffffffffffffffffffffffffffffff1681526020019081526020016000208281548110611c4d57611c4c61556e565b5b906000526020600020906006020160010160009054906101000a900473ffffffffffffffffffffffffffffffffffffffff1673ffffffffffffffffffffffffffffffffffffffff16145b15611e78573373ffffffffffffffffffffffffffffffffffffffff16600360003373ffffffffffffffffffffffffffffffffffffffff1673ffffffffffffffffffffffffffffffffffffffff1681526020019081526020016000208281548110611d0457611d0361556e565b5b906000526020600020906006020160020160009054906101000a900473ffffffffffffffffffffffffffffffffffffffff1673ffffffffffffffffffffffffffffffffffffffff16148015611dcc575060001515600360003373ffffffffffffffffffffffffffffffffffffffff1673ffffffffffffffffffffffffffffffffffffffff1681526020019081526020016000208281548110611da957611da861556e565b5b906000526020600020906006020160050160009054906101000a900460ff161515145b15611e3d5783600360003373ffffffffffffffffffffffffffffffffffffffff1673ffffffffffffffffffffffffffffffffffffffff1681526020019081526020016000208281548110611e2357611e2261556e565b5b906000526020600020906006020160040181905550611e8b565b6040517f08c379a0000000000000000000000000000000000000000000000000000000008152600401611e6f90615807565b60405180910390fd5b8080611e839061574d565b915050611b2f565b50505050565b611ebc81308473ffffffffffffffffffffffffffffffffffffffff16613c459092919063ffffffff16565b505050565b611eee3330838573ffffffffffffffffffffffffffffffffffffffff16613ca9909392919063ffffffff16565b505050565b60008054906101000a900473ffffffffffffffffffffffffffffffffffffffff1673ffffffffffffffffffffffffffffffffffffffff163373ffffffffffffffffffffffffffffffffffffffff1614611f81576040517f08c379a0000000000000000000000000000000000000000000000000000000008152600401611f789061554e565b60405180910390fd5b60005b600660008873ffffffffffffffffffffffffffffffffffffffff1673ffffffffffffffffffffffffffffffffffffffff16815260200190815260200160002080549050811015612c41578573ffffffffffffffffffffffffffffffffffffffff16600660008973ffffffffffffffffffffffffffffffffffffffff1673ffffffffffffffffffffffffffffffffffffffff16815260200190815260200160002082815481106120365761203561556e565b5b906000526020600020906009020160020160009054906101000a900473ffffffffffffffffffffffffffffffffffffffff1673ffffffffffffffffffffffffffffffffffffffff161480156120ec575083600660008973ffffffffffffffffffffffffffffffffffffffff1673ffffffffffffffffffffffffffffffffffffffff16815260200190815260200160002082815481106120d8576120d761556e565b5b906000526020600020906009020160030154145b15612c2e576000600660008973ffffffffffffffffffffffffffffffffffffffff1673ffffffffffffffffffffffffffffffffffffffff16815260200190815260200160002082815481106121445761214361556e565b5b90600052602060002090600902016006015403612c2d5742600660008973ffffffffffffffffffffffffffffffffffffffff1673ffffffffffffffffffffffffffffffffffffffff16815260200190815260200160002082815481106121ad576121ac61556e565b5b906000526020600020906009020160060181905550600660008873ffffffffffffffffffffffffffffffffffffffff1673ffffffffffffffffffffffffffffffffffffffff16815260200190815260200160002081815481106122135761221261556e565b5b906000526020600020906009020160040160009054906101000a9004600b0b600b0b6122e230600660008b73ffffffffffffffffffffffffffffffffffffffff1673ffffffffffffffffffffffffffffffffffffffff168152602001908152602001600020848154811061228a5761228961556e565b5b906000526020600020906009020160010160009054906101000a900473ffffffffffffffffffffffffffffffffffffffff168573ffffffffffffffffffffffffffffffffffffffff16613adb9092919063ffffffff16565b600b0b0361237b5761237682600660008a73ffffffffffffffffffffffffffffffffffffffff1673ffffffffffffffffffffffffffffffffffffffff168152602001908152602001600020838154811061233f5761233e61556e565b5b906000526020600020906009020160010160009054906101000a900473ffffffffffffffffffffffffffffffffffffffff166135ed565b61252f565b61252e82600660008a73ffffffffffffffffffffffffffffffffffffffff1673ffffffffffffffffffffffffffffffffffffffff16815260200190815260200160002083815481106123d0576123cf61556e565b5b906000526020600020906009020160010160009054906101000a900473ffffffffffffffffffffffffffffffffffffffff16600660008b73ffffffffffffffffffffffffffffffffffffffff1673ffffffffffffffffffffffffffffffffffffffff16815260200190815260200160002084815481106124535761245261556e565b5b906000526020600020906009020160040160009054906101000a9004600b0b61251f30600660008e73ffffffffffffffffffffffffffffffffffffffff1673ffffffffffffffffffffffffffffffffffffffff16815260200190815260200160002087815481106124c7576124c661556e565b5b906000526020600020906009020160010160009054906101000a900473ffffffffffffffffffffffffffffffffffffffff168873ffffffffffffffffffffffffffffffffffffffff16613adb9092919063ffffffff16565b6125299190615630565b610fbf565b5b8573ffffffffffffffffffffffffffffffffffffffff166342842e0e30600660008b73ffffffffffffffffffffffffffffffffffffffff1673ffffffffffffffffffffffffffffffffffffffff168152602001908152602001600020848154811061259d5761259c61556e565b5b906000526020600020906009020160010160009054906101000a900473ffffffffffffffffffffffffffffffffffffffff16876040518463ffffffff1660e01b81526004016125ee93929190615716565b600060405180830381600087803b15801561260857600080fd5b505af115801561261c573d6000803e3d6000fd5b505050508473ffffffffffffffffffffffffffffffffffffffff1663a9059cbb88856040518363ffffffff1660e01b815260040161265b929190615694565b6020604051808303816000875af115801561267a573d6000803e3d6000fd5b505050506040513d601f19601f8201168201806040525081019061269e91906156e9565b5060005b60036000600660008b73ffffffffffffffffffffffffffffffffffffffff1673ffffffffffffffffffffffffffffffffffffffff16815260200190815260200160002084815481106126f7576126f661556e565b5b906000526020600020906009020160010160009054906101000a900473ffffffffffffffffffffffffffffffffffffffff1673ffffffffffffffffffffffffffffffffffffffff1673ffffffffffffffffffffffffffffffffffffffff16815260200190815260200160002080549050811015612c27578460036000600660008c73ffffffffffffffffffffffffffffffffffffffff1673ffffffffffffffffffffffffffffffffffffffff16815260200190815260200160002085815481106127c4576127c361556e565b5b906000526020600020906009020160010160009054906101000a900473ffffffffffffffffffffffffffffffffffffffff1673ffffffffffffffffffffffffffffffffffffffff1673ffffffffffffffffffffffffffffffffffffffff16815260200190815260200160002082815481106128425761284161556e565b5b90600052602060002090600602016000015414801561299057508673ffffffffffffffffffffffffffffffffffffffff1660036000600660008c73ffffffffffffffffffffffffffffffffffffffff1673ffffffffffffffffffffffffffffffffffffffff16815260200190815260200160002085815481106128c8576128c761556e565b5b906000526020600020906009020160010160009054906101000a900473ffffffffffffffffffffffffffffffffffffffff1673ffffffffffffffffffffffffffffffffffffffff1673ffffffffffffffffffffffffffffffffffffffff16815260200190815260200160002082815481106129465761294561556e565b5b906000526020600020906006020160010160009054906101000a900473ffffffffffffffffffffffffffffffffffffffff1673ffffffffffffffffffffffffffffffffffffffff16145b15612c1457600060036000600660008c73ffffffffffffffffffffffffffffffffffffffff1673ffffffffffffffffffffffffffffffffffffffff16815260200190815260200160002085815481106129ec576129eb61556e565b5b906000526020600020906009020160010160009054906101000a900473ffffffffffffffffffffffffffffffffffffffff1673ffffffffffffffffffffffffffffffffffffffff1673ffffffffffffffffffffffffffffffffffffffff1681526020019081526020016000208281548110612a6a57612a6961556e565b5b906000526020600020906006020160050160006101000a81548160ff02191690831515021790555060036000600660008b73ffffffffffffffffffffffffffffffffffffffff1673ffffffffffffffffffffffffffffffffffffffff1681526020019081526020016000208481548110612ae757612ae661556e565b5b906000526020600020906009020160010160009054906101000a900473ffffffffffffffffffffffffffffffffffffffff1673ffffffffffffffffffffffffffffffffffffffff1673ffffffffffffffffffffffffffffffffffffffff1681526020019081526020016000208181548110612b6557612b6461556e565b5b90600052602060002090600602016000808201600090556001820160006101000a81549073ffffffffffffffffffffffffffffffffffffffff02191690556002820160006101000a81549073ffffffffffffffffffffffffffffffffffffffff02191690556003820160006101000a81549073ffffffffffffffffffffffffffffffffffffffff021916905560048201600090556005820160006101000a81549060ff02191690555050612c27565b8080612c1f9061574d565b9150506126a2565b50612c41565b5b8080612c399061574d565b915050611f84565b50505050505050565b612c7582828573ffffffffffffffffffffffffffffffffffffffff16613d0f9092919063ffffffff16565b50505050565b60005b600360008973ffffffffffffffffffffffffffffffffffffffff1673ffffffffffffffffffffffffffffffffffffffff168152602001908152602001600020805490508110156135e3578673ffffffffffffffffffffffffffffffffffffffff16600360008a73ffffffffffffffffffffffffffffffffffffffff1673ffffffffffffffffffffffffffffffffffffffff1681526020019081526020016000208281548110612d3057612d2f61556e565b5b906000526020600020906006020160010160009054906101000a900473ffffffffffffffffffffffffffffffffffffffff1673ffffffffffffffffffffffffffffffffffffffff16148015612de6575085600360008a73ffffffffffffffffffffffffffffffffffffffff1673ffffffffffffffffffffffffffffffffffffffff1681526020019081526020016000208281548110612dd257612dd161556e565b5b906000526020600020906006020160000154145b156135d05760001515600360008a73ffffffffffffffffffffffffffffffffffffffff1673ffffffffffffffffffffffffffffffffffffffff1681526020019081526020016000208281548110612e4057612e3f61556e565b5b906000526020600020906006020160050160009054906101000a900460ff161515036135955760001515600560003373ffffffffffffffffffffffffffffffffffffffff1673ffffffffffffffffffffffffffffffffffffffff16815260200190815260200160002060009054906101000a900460ff16151503612f7a576004339080600181540180825580915050600190039060005260206000200160009091909190916101000a81548173ffffffffffffffffffffffffffffffffffffffff021916908373ffffffffffffffffffffffffffffffffffffffff1602179055506001600560003373ffffffffffffffffffffffffffffffffffffffff1673ffffffffffffffffffffffffffffffffffffffff16815260200190815260200160002060006101000a81548160ff0219169083151502179055505b8273ffffffffffffffffffffffffffffffffffffffff166323b872dd3330600360008d73ffffffffffffffffffffffffffffffffffffffff1673ffffffffffffffffffffffffffffffffffffffff1681526020019081526020016000208581548110612fe957612fe861556e565b5b9060005260206000209060060201600401546040518463ffffffff1660e01b815260040161301993929190615716565b6020604051808303816000875af1158015613038573d6000803e3d6000fd5b505050506040513d601f19601f8201168201806040525081019061305c91906156e9565b50600660003373ffffffffffffffffffffffffffffffffffffffff1673ffffffffffffffffffffffffffffffffffffffff1681526020019081526020016000206040518061012001604052803373ffffffffffffffffffffffffffffffffffffffff1681526020018a73ffffffffffffffffffffffffffffffffffffffff1681526020018973ffffffffffffffffffffffffffffffffffffffff16815260200188815260200187600b0b8152602001428152602001600081526020014287600360008e73ffffffffffffffffffffffffffffffffffffffff1673ffffffffffffffffffffffffffffffffffffffff168152602001908152602001600020868154811061316b5761316a61556e565b5b9060005260206000209060060201600401546131879190615856565b6131919190615887565b8152602001600360008c73ffffffffffffffffffffffffffffffffffffffff1673ffffffffffffffffffffffffffffffffffffffff16815260200190815260200160002084815481106131e7576131e661556e565b5b906000526020600020906006020160040154815250908060018154018082558091505060019003906000526020600020906009020160009091909190915060008201518160000160006101000a81548173ffffffffffffffffffffffffffffffffffffffff021916908373ffffffffffffffffffffffffffffffffffffffff16021790555060208201518160010160006101000a81548173ffffffffffffffffffffffffffffffffffffffff021916908373ffffffffffffffffffffffffffffffffffffffff16021790555060408201518160020160006101000a81548173ffffffffffffffffffffffffffffffffffffffff021916908373ffffffffffffffffffffffffffffffffffffffff1602179055506060820151816003015560808201518160040160006101000a8154816bffffffffffffffffffffffff0219169083600b0b6bffffffffffffffffffffffff16021790555060a0820151816005015560c0820151816006015560e08201518160070155610100820151816008015550506001600360008a73ffffffffffffffffffffffffffffffffffffffff1673ffffffffffffffffffffffffffffffffffffffff16815260200190815260200160002082815481106133bc576133bb61556e565b5b906000526020600020906006020160050160006101000a81548160ff02191690831515021790555033600360008a73ffffffffffffffffffffffffffffffffffffffff1673ffffffffffffffffffffffffffffffffffffffff16815260200190815260200160002082815481106134365761343561556e565b5b906000526020600020906006020160030160006101000a81548173ffffffffffffffffffffffffffffffffffffffff021916908373ffffffffffffffffffffffffffffffffffffffff16021790555060006134b233308573ffffffffffffffffffffffffffffffffffffffff16613adb9092919063ffffffff16565b600b0b036134c9576134c48286611ec1565b61350a565b61350982866134f933308773ffffffffffffffffffffffffffffffffffffffff16613adb9092919063ffffffff16565b6135039190615630565b33611af9565b5b6000613537308a8573ffffffffffffffffffffffffffffffffffffffff16613adb9092919063ffffffff16565b600b0b0361354f5761354a828987612c4a565b613590565b61358f828987613580308d8873ffffffffffffffffffffffffffffffffffffffff16613adb9092919063ffffffff16565b61358a9190615630565b610fbf565b5b6135e3565b6040517f08c379a00000000000000000000000000000000000000000000000000000000081526004016135c790615907565b60405180910390fd5b80806135db9061574d565b915050612c7e565b5050505050505050565b61361830828473ffffffffffffffffffffffffffffffffffffffff16613c459092919063ffffffff16565b505050565b60056020528060005260406000206000915054906101000a900460ff1681565b6001818154811061364d57600080fd5b906000526020600020016000915054906101000a900473ffffffffffffffffffffffffffffffffffffffff1681565b60001515600260003373ffffffffffffffffffffffffffffffffffffffff1673ffffffffffffffffffffffffffffffffffffffff16815260200190815260200160002060009054906101000a900460ff16151503613790576001339080600181540180825580915050600190039060005260206000200160009091909190916101000a81548173ffffffffffffffffffffffffffffffffffffffff021916908373ffffffffffffffffffffffffffffffffffffffff1602179055506001600260003373ffffffffffffffffffffffffffffffffffffffff1673ffffffffffffffffffffffffffffffffffffffff16815260200190815260200160002060006101000a81548160ff0219169083151502179055505b600360003373ffffffffffffffffffffffffffffffffffffffff1673ffffffffffffffffffffffffffffffffffffffff1681526020019081526020016000206040518060c001604052808581526020018373ffffffffffffffffffffffffffffffffffffffff1681526020013373ffffffffffffffffffffffffffffffffffffffff168152602001600073ffffffffffffffffffffffffffffffffffffffff1681526020018481526020016000151581525090806001815401808255809150506001900390600052602060002090600602016000909190919091506000820151816000015560208201518160010160006101000a81548173ffffffffffffffffffffffffffffffffffffffff021916908373ffffffffffffffffffffffffffffffffffffffff16021790555060408201518160020160006101000a81548173ffffffffffffffffffffffffffffffffffffffff021916908373ffffffffffffffffffffffffffffffffffffffff16021790555060608201518160030160006101000a81548173ffffffffffffffffffffffffffffffffffffffff021916908373ffffffffffffffffffffffffffffffffffffffff1602179055506080820151816004015560a08201518160050160006101000a81548160ff02191690831515021790555050508073ffffffffffffffffffffffffffffffffffffffff166342842e0e3330866040518463ffffffff1660e01b81526004016139b393929190615716565b600060405180830381600087803b1580156139cd57600080fd5b505af11580156139e1573d6000803e3d6000fd5b50505050505050565b600481815481106139fa57600080fd5b906000526020600020016000915054906101000a900473ffffffffffffffffffffffffffffffffffffffff1681565b60606004805480602002602001604051908101604052809291908181526020018280548015613aad57602002820191906000526020600020905b8160009054906101000a900473ffffffffffffffffffffffffffffffffffffffff1673ffffffffffffffffffffffffffffffffffffffff1681526020019060010190808311613a63575b5050505050905090565b60008054906101000a900473ffffffffffffffffffffffffffffffffffffffff1681565b600080613ae785613d73565b9150508073ffffffffffffffffffffffffffffffffffffffff1663e6a1e8888686866040518463ffffffff1660e01b8152600401613b2793929190615986565b608060405180830381865afa158015613b44573d6000803e3d6000fd5b505050506040513d601f19601f82011682018060405250810190613b6891906159e7565b9091925090505080925050509392505050565b6000613bd6848484600067ffffffffffffffff811115613b9e57613b9d615a4e565b5b6040519080825280601f01601f191660200182016040528015613bd05781602001600182028036833780820191505090505b50613fb4565b90509392505050565b6000613c3b85858585600067ffffffffffffffff811115613c0357613c02615a4e565b5b6040519080825280601f01601f191660200182016040528015613c355781602001600182028036833780820191505090505b5061411b565b9050949350505050565b6000613ca0848484600067ffffffffffffffff811115613c6857613c67615a4e565b5b6040519080825280601f01601f191660200182016040528015613c9a5781602001600182028036833780820191505090505b50614285565b90509392505050565b6000613d0585858585600067ffffffffffffffff811115613ccd57613ccc615a4e565b5b6040519080825280601f01601f191660200182016040528015613cff5781602001600182028036833780820191505090505b506143ec565b9050949350505050565b6000613d6a848484600067ffffffffffffffff811115613d3257613d31615a4e565b5b6040519080825280601f01601f191660200182016040528015613d645781602001600182028036833780820191505090505b50614556565b90509392505050565b6000807f65599bf746e17a00ea62e3610586992d88101b78eec3cf380706621fb97ea8375491507fb969d79d88acd02d04ed7ee7d43b949e7daf093d363abcfbbc43dfdfd1ce969a549050600073ffffffffffffffffffffffffffffffffffffffff168173ffffffffffffffffffffffffffffffffffffffff1603613f3557600073ffffffffffffffffffffffffffffffffffffffff168273ffffffffffffffffffffffffffffffffffffffff1603613e98578273ffffffffffffffffffffffffffffffffffffffff166320bc44256040518163ffffffff1660e01b8152600401602060405180830381865afa158015613e71573d6000803e3d6000fd5b505050506040513d601f19601f82011682018060405250810190613e959190615a92565b91505b8173ffffffffffffffffffffffffffffffffffffffff1663b6d200de7fa9214cc96615e0085d3bb077758db69497dc2dce3b2b1e97bc93c3d18d83efd36040518263ffffffff1660e01b8152600401613ef19190615ad8565b602060405180830381865afa158015613f0e573d6000803e3d6000fd5b505050506040513d601f19601f82011682018060405250810190613f329190615b31565b90505b600073ffffffffffffffffffffffffffffffffffffffff168273ffffffffffffffffffffffffffffffffffffffff1603613f7257613f71615b5e565b5b600073ffffffffffffffffffffffffffffffffffffffff168173ffffffffffffffffffffffffffffffffffffffff1603613faf57613fae615b5e565b5b915091565b6000806000613fc2876146bd565b915091508173ffffffffffffffffffffffffffffffffffffffff166339255d5b828373ffffffffffffffffffffffffffffffffffffffff166350209a628b8b8b600067ffffffffffffffff81111561401d5761401c615a4e565b5b6040519080825280601f01601f19166020018201604052801561404f5781602001600182028036833780820191505090505b506040516024016140639493929190615c1d565b604051602081830303815290604052915060e01b6020820180517bffffffffffffffffffffffffffffffffffffffffffffffffffffffff8381831617835250505050876040518463ffffffff1660e01b81526004016140c493929190615c8a565b6000604051808303816000875af11580156140e3573d6000803e3d6000fd5b505050506040513d6000823e3d601f19601f8201168201806040525081019061410c9190615dc1565b50600192505050949350505050565b6000806000614129886146bd565b915091508173ffffffffffffffffffffffffffffffffffffffff166339255d5b828373ffffffffffffffffffffffffffffffffffffffff1663354b95908c8c8c8c600067ffffffffffffffff81111561418557614184615a4e565b5b6040519080825280601f01601f1916602001820160405280156141b75781602001600182028036833780820191505090505b506040516024016141cc959493929190615e0a565b604051602081830303815290604052915060e01b6020820180517bffffffffffffffffffffffffffffffffffffffffffffffffffffffff8381831617835250505050876040518463ffffffff1660e01b815260040161422d93929190615c8a565b6000604051808303816000875af115801561424c573d6000803e3d6000fd5b505050506040513d6000823e3d601f19601f820116820180604052508101906142759190615dc1565b5060019250505095945050505050565b6000806000614293876146bd565b915091508173ffffffffffffffffffffffffffffffffffffffff166339255d5b828373ffffffffffffffffffffffffffffffffffffffff1663b4b333c68b8b8b600067ffffffffffffffff8111156142ee576142ed615a4e565b5b6040519080825280601f01601f1916602001820160405280156143205781602001600182028036833780820191505090505b506040516024016143349493929190615e64565b604051602081830303815290604052915060e01b6020820180517bffffffffffffffffffffffffffffffffffffffffffffffffffffffff8381831617835250505050876040518463ffffffff1660e01b815260040161439593929190615c8a565b6000604051808303816000875af11580156143b4573d6000803e3d6000fd5b505050506040513d6000823e3d601f19601f820116820180604052508101906143dd9190615dc1565b50600192505050949350505050565b60008060006143fa886146bd565b915091508173ffffffffffffffffffffffffffffffffffffffff166339255d5b828373ffffffffffffffffffffffffffffffffffffffff166394229ecb8c8c8c8c600067ffffffffffffffff81111561445657614455615a4e565b5b6040519080825280601f01601f1916602001820160405280156144885781602001600182028036833780820191505090505b5060405160240161449d959493929190615e0a565b604051602081830303815290604052915060e01b6020820180517bffffffffffffffffffffffffffffffffffffffffffffffffffffffff8381831617835250505050876040518463ffffffff1660e01b81526004016144fe93929190615c8a565b6000604051808303816000875af115801561451d573d6000803e3d6000fd5b505050506040513d6000823e3d601f19601f820116820180604052508101906145469190615dc1565b5060019250505095945050505050565b6000806000614564876146bd565b915091508173ffffffffffffffffffffffffffffffffffffffff166339255d5b828373ffffffffffffffffffffffffffffffffffffffff166362fc305e8b8b8b600067ffffffffffffffff8111156145bf576145be615a4e565b5b6040519080825280601f01601f1916602001820160405280156145f15781602001600182028036833780820191505090505b506040516024016146059493929190615c1d565b604051602081830303815290604052915060e01b6020820180517bffffffffffffffffffffffffffffffffffffffffffffffffffffffff8381831617835250505050876040518463ffffffff1660e01b815260040161466693929190615c8a565b6000604051808303816000875af1158015614685573d6000803e3d6000fd5b505050506040513d6000823e3d601f19601f820116820180604052508101906146ae9190615dc1565b50600192505050949350505050565b6000807f65599bf746e17a00ea62e3610586992d88101b78eec3cf380706621fb97ea8375491507fb969d79d88acd02d04ed7ee7d43b949e7daf093d363abcfbbc43dfdfd1ce969a549050600073ffffffffffffffffffffffffffffffffffffffff168173ffffffffffffffffffffffffffffffffffffffff16036148c557600073ffffffffffffffffffffffffffffffffffffffff168273ffffffffffffffffffffffffffffffffffffffff16036147e2578273ffffffffffffffffffffffffffffffffffffffff166320bc44256040518163ffffffff1660e01b8152600401602060405180830381865afa1580156147bb573d6000803e3d6000fd5b505050506040513d601f19601f820116820180604052508101906147df9190615a92565b91505b8173ffffffffffffffffffffffffffffffffffffffff1663b6d200de7fa9214cc96615e0085d3bb077758db69497dc2dce3b2b1e97bc93c3d18d83efd36040518263ffffffff1660e01b815260040161483b9190615ad8565b602060405180830381865afa158015614858573d6000803e3d6000fd5b505050506040513d601f19601f8201168201806040525081019061487c9190615b31565b9050817f65599bf746e17a00ea62e3610586992d88101b78eec3cf380706621fb97ea83755807fb969d79d88acd02d04ed7ee7d43b949e7daf093d363abcfbbc43dfdfd1ce969a555b600073ffffffffffffffffffffffffffffffffffffffff168273ffffffffffffffffffffffffffffffffffffffff160361490257614901615b5e565b5b600073ffffffffffffffffffffffffffffffffffffffff168173ffffffffffffffffffffffffffffffffffffffff160361493f5761493e615b5e565b5b915091565b6000604051905090565b600080fd5b600080fd5b600073ffffffffffffffffffffffffffffffffffffffff82169050919050565b600061498382614958565b9050919050565b61499381614978565b811461499e57600080fd5b50565b6000813590506149b08161498a565b92915050565b6000819050919050565b6149c9816149b6565b81146149d457600080fd5b50565b6000813590506149e6816149c0565b92915050565b60006149f782614978565b9050919050565b614a07816149ec565b8114614a1257600080fd5b50565b600081359050614a24816149fe565b92915050565b600080600080600060a08688031215614a4657614a4561494e565b5b6000614a54888289016149a1565b9550506020614a65888289016149a1565b9450506040614a76888289016149a1565b9350506060614a87888289016149d7565b9250506080614a9888828901614a15565b9150509295509295909350565b600081600b0b9050919050565b614abb81614aa5565b8114614ac657600080fd5b50565b600081359050614ad881614ab2565b92915050565b600080600060608486031215614af757614af661494e565b5b6000614b0586828701614a15565b9350506020614b16868287016149a1565b9250506040614b2786828701614ac9565b9150509250925092565b600060208284031215614b4757614b4661494e565b5b6000614b55848285016149a1565b91505092915050565b60008115159050919050565b614b7381614b5e565b82525050565b6000602082019050614b8e6000830184614b6a565b92915050565b600080fd5b600080fd5b600080fd5b60008083601f840112614bb957614bb8614b94565b5b8235905067ffffffffffffffff811115614bd657614bd5614b99565b5b602083019150836001820283011115614bf257614bf1614b9e565b5b9250929050565b600080600080600060808688031215614c1557614c1461494e565b5b6000614c23888289016149a1565b9550506020614c34888289016149a1565b9450506040614c45888289016149d7565b935050606086013567ffffffffffffffff811115614c6657614c65614953565b5b614c7288828901614ba3565b92509250509295509295909350565b60007fffffffff0000000000000000000000000000000000000000000000000000000082169050919050565b614cb681614c81565b82525050565b6000602082019050614cd16000830184614cad565b92915050565b600081519050919050565b600082825260208201905092915050565b6000819050602082019050919050565b614d0c816149b6565b82525050565b614d1b81614978565b82525050565b614d2a81614b5e565b82525050565b60c082016000820151614d466000850182614d03565b506020820151614d596020850182614d12565b506040820151614d6c6040850182614d12565b506060820151614d7f6060850182614d12565b506080820151614d926080850182614d03565b5060a0820151614da560a0850182614d21565b50505050565b6000614db78383614d30565b60c08301905092915050565b6000602082019050919050565b6000614ddb82614cd7565b614de58185614ce2565b9350614df083614cf3565b8060005b83811015614e21578151614e088882614dab565b9750614e1383614dc3565b925050600181019050614df4565b5085935050505092915050565b60006020820190508181036000830152614e488184614dd0565b905092915050565b600081519050919050565b600082825260208201905092915050565b6000819050602082019050919050565b614e8581614aa5565b82525050565b61012082016000820151614ea26000850182614d12565b506020820151614eb56020850182614d12565b506040820151614ec86040850182614d12565b506060820151614edb6060850182614d03565b506080820151614eee6080850182614e7c565b5060a0820151614f0160a0850182614d03565b5060c0820151614f1460c0850182614d03565b5060e0820151614f2760e0850182614d03565b50610100820151614f3c610100850182614d03565b50505050565b6000614f4e8383614e8b565b6101208301905092915050565b6000602082019050919050565b6000614f7382614e50565b614f7d8185614e5b565b9350614f8883614e6c565b8060005b83811015614fb9578151614fa08882614f42565b9750614fab83614f5b565b925050600181019050614f8c565b5085935050505092915050565b60006020820190508181036000830152614fe08184614f68565b905092915050565b600081519050919050565b600082825260208201905092915050565b6000819050602082019050919050565b60006150208383614d12565b60208301905092915050565b6000602082019050919050565b600061504482614fe8565b61504e8185614ff3565b935061505983615004565b8060005b8381101561508a5781516150718882615014565b975061507c8361502c565b92505060018101905061505d565b5085935050505092915050565b600060208201905081810360008301526150b18184615039565b905092915050565b600080604083850312156150d0576150cf61494e565b5b60006150de858286016149d7565b92505060206150ef858286016149a1565b9150509250929050565b600080604083850312156151105761510f61494e565b5b600061511e858286016149a1565b925050602061512f858286016149d7565b9150509250929050565b615142816149b6565b82525050565b61515181614978565b82525050565b600060c08201905061516c6000830189615139565b6151796020830188615148565b6151866040830187615148565b6151936060830186615148565b6151a06080830185615139565b6151ad60a0830184614b6a565b979650505050505050565b6151c181614aa5565b82525050565b6000610120820190506151dd600083018c615148565b6151ea602083018b615148565b6151f7604083018a615148565b6152046060830189615139565b61521160808301886151b8565b61521e60a0830187615139565b61522b60c0830186615139565b61523860e0830185615139565b615246610100830184615139565b9a9950505050505050505050565b60008060006060848603121561526d5761526c61494e565b5b600061527b86828701614a15565b935050602061528c86828701614ac9565b925050604061529d868287016149a1565b9150509250925092565b6000806000606084860312156152c0576152bf61494e565b5b60006152ce868287016149d7565b93505060206152df868287016149d7565b92505060406152f0868287016149a1565b9150509250925092565b600080604083850312156153115761531061494e565b5b600061531f85828601614a15565b9250506020615330858286016149a1565b9150509250929050565b600080604083850312156153515761535061494e565b5b600061535f85828601614a15565b925050602061537085828601614ac9565b9150509250929050565b60008060008060008060c087890312156153975761539661494e565b5b60006153a589828a016149a1565b96505060206153b689828a016149a1565b95505060406153c789828a016149a1565b94505060606153d889828a016149d7565b93505060806153e989828a016149d7565b92505060a06153fa89828a01614a15565b9150509295509295509295565b600080600080600080600060e0888a0312156154265761542561494e565b5b60006154348a828b016149a1565b97505060206154458a828b016149a1565b96505060406154568a828b016149d7565b95505060606154678a828b01614ac9565b94505060806154788a828b016149d7565b93505060a06154898a828b016149a1565b92505060c061549a8a828b01614a15565b91505092959891949750929550565b6000602082840312156154bf576154be61494e565b5b60006154cd848285016149d7565b91505092915050565b60006020820190506154eb6000830184615148565b92915050565b600082825260208201905092915050565b7f4f6e6c79206f776e65722066756e6374696f6e00000000000000000000000000600082015250565b60006155386013836154f1565b915061554382615502565b602082019050919050565b600060208201905081810360008301526155678161552b565b9050919050565b7f4e487b7100000000000000000000000000000000000000000000000000000000600052603260045260246000fd5b7f4e487b7100000000000000000000000000000000000000000000000000000000600052601160045260246000fd5b60006155d782614aa5565b91506155e283614aa5565b925082820390506b7fffffffffffffffffffffff81137fffffffffffffffffffffffffffffffffffffffff8000000000000000000000008212171561562a5761562961559d565b5b92915050565b600061563b82614aa5565b915061564683614aa5565b925082820190507fffffffffffffffffffffffffffffffffffffffff80000000000000000000000081126b7fffffffffffffffffffffff8213171561568e5761568d61559d565b5b92915050565b60006040820190506156a96000830185615148565b6156b66020830184615139565b9392505050565b6156c681614b5e565b81146156d157600080fd5b50565b6000815190506156e3816156bd565b92915050565b6000602082840312156156ff576156fe61494e565b5b600061570d848285016156d4565b91505092915050565b600060608201905061572b6000830186615148565b6157386020830185615148565b6157456040830184615139565b949350505050565b6000615758826149b6565b91507fffffffffffffffffffffffffffffffffffffffffffffffffffffffffffffffff820361578a5761578961559d565b5b600182019050919050565b7f596f752063616e206f6e6c792063616e63656c20756e736f6c64204e4654732060008201527f7468617420796f75206f776e2e00000000000000000000000000000000000000602082015250565b60006157f1602d836154f1565b91506157fc82615795565b604082019050919050565b60006020820190508181036000830152615820816157e4565b9050919050565b7f4e487b7100000000000000000000000000000000000000000000000000000000600052601260045260246000fd5b6000615861826149b6565b915061586c836149b6565b92508261587c5761587b615827565b5b828204905092915050565b6000615892826149b6565b915061589d836149b6565b92508282019050808211156158b5576158b461559d565b5b92915050565b7f546f6b656e20697320616c726561647920736f6c640000000000000000000000600082015250565b60006158f16015836154f1565b91506158fc826158bb565b602082019050919050565b60006020820190508181036000830152615920816158e4565b9050919050565b6000819050919050565b600061594c61594761594284614958565b615927565b614958565b9050919050565b600061595e82615931565b9050919050565b600061597082615953565b9050919050565b61598081615965565b82525050565b600060608201905061599b6000830186615977565b6159a86020830185615148565b6159b56040830184615148565b949350505050565b6000815190506159cc816149c0565b92915050565b6000815190506159e181614ab2565b92915050565b60008060008060808587031215615a0157615a0061494e565b5b6000615a0f878288016159bd565b9450506020615a20878288016159d2565b9350506040615a31878288016159bd565b9250506060615a42878288016159bd565b91505092959194509250565b7f4e487b7100000000000000000000000000000000000000000000000000000000600052604160045260246000fd5b600081519050615a8c8161498a565b92915050565b600060208284031215615aa857615aa761494e565b5b6000615ab684828501615a7d565b91505092915050565b6000819050919050565b615ad281615abf565b82525050565b6000602082019050615aed6000830184615ac9565b92915050565b6000615afe82614978565b9050919050565b615b0e81615af3565b8114615b1957600080fd5b50565b600081519050615b2b81615b05565b92915050565b600060208284031215615b4757615b4661494e565b5b6000615b5584828501615b1c565b91505092915050565b7f4e487b7100000000000000000000000000000000000000000000000000000000600052600160045260246000fd5b600081519050919050565b600082825260208201905092915050565b60005b83811015615bc7578082015181840152602081019050615bac565b60008484015250505050565b6000601f19601f8301169050919050565b6000615bef82615b8d565b615bf98185615b98565b9350615c09818560208601615ba9565b615c1281615bd3565b840191505092915050565b6000608082019050615c326000830187615977565b615c3f6020830186615148565b615c4c60408301856151b8565b8181036060830152615c5e8184615be4565b905095945050505050565b6000615c7482615953565b9050919050565b615c8481615c69565b82525050565b6000606082019050615c9f6000830186615c7b565b8181036020830152615cb18185615be4565b90508181036040830152615cc58184615be4565b9050949350505050565b600080fd5b615cdd82615bd3565b810181811067ffffffffffffffff82111715615cfc57615cfb615a4e565b5b80604052505050565b6000615d0f614944565b9050615d1b8282615cd4565b919050565b600067ffffffffffffffff821115615d3b57615d3a615a4e565b5b615d4482615bd3565b9050602081019050919050565b6000615d64615d5f84615d20565b615d05565b905082815260208101848484011115615d8057615d7f615ccf565b5b615d8b848285615ba9565b509392505050565b600082601f830112615da857615da7614b94565b5b8151615db8848260208601615d51565b91505092915050565b600060208284031215615dd757615dd661494e565b5b600082015167ffffffffffffffff811115615df557615df4614953565b5b615e0184828501615d93565b91505092915050565b600060a082019050615e1f6000830188615977565b615e2c6020830187615148565b615e396040830186615148565b615e4660608301856151b8565b8181036080830152615e588184615be4565b90509695505050505050565b6000608082019050615e796000830187615977565b615e866020830186615148565b615e936040830185615148565b8181036060830152615ea58184615be4565b90509594505050505056fea264697066735822122033ed18458189fafcd144d2b65cef71126331ad9162b12254eb9c1b45ff2f224c64736f6c63430008120033",
  "linkReferences": {},
  "deployedLinkReferences": {}
}