{
  "_format": "hh-sol-artifact-1",
  "contractName": "PurchaseNFTOverTime",
  "sourceName": "contracts/PurchaseNFTOverTime.sol",
  "abi": [
    {
      "inputs": [],
      "stateMutability": "nonpayable",
      "type": "constructor"
    },
    {
      "inputs": [
        {
          "internalType": "address",
          "name": "_seller",
          "type": "address"
        },
        {
          "internalType": "address",
          "name": "_tokenAddress",
          "type": "address"
        },
        {
          "internalType": "uint256",
          "name": "_tokenId",
          "type": "uint256"
        },
        {
          "internalType": "int96",
          "name": "_flowrate",
          "type": "int96"
        },
        {
          "internalType": "address",
          "name": "_erc20",
          "type": "address"
        },
        {
          "internalType": "contract ISuperToken",
          "name": "token",
          "type": "address"
        }
      ],
      "name": "BuyNFTOverTime",
      "outputs": [],
      "stateMutability": "payable",
      "type": "function"
    },
    {
      "inputs": [
        {
          "internalType": "address",
          "name": "",
          "type": "address"
        },
        {
          "internalType": "uint256",
          "name": "",
          "type": "uint256"
        }
      ],
      "name": "addressToBuyer",
      "outputs": [
        {
          "internalType": "address",
          "name": "user",
          "type": "address"
        },
        {
          "internalType": "address",
          "name": "seller",
          "type": "address"
        },
        {
          "internalType": "address",
          "name": "tokenAddress",
          "type": "address"
        },
        {
          "internalType": "uint256",
          "name": "tokenId",
          "type": "uint256"
        },
        {
          "internalType": "int96",
          "name": "flowRate",
          "type": "int96"
        },
        {
          "internalType": "uint256",
          "name": "timeStarted",
          "type": "uint256"
        },
        {
          "internalType": "uint256",
          "name": "timeStopped",
          "type": "uint256"
        },
        {
          "internalType": "uint256",
          "name": "estimatedTime",
          "type": "uint256"
        },
        {
          "internalType": "uint256",
          "name": "price",
          "type": "uint256"
        }
      ],
      "stateMutability": "view",
      "type": "function"
    },
    {
      "inputs": [
        {
          "internalType": "address",
          "name": "",
          "type": "address"
        },
        {
          "internalType": "uint256",
          "name": "",
          "type": "uint256"
        }
      ],
      "name": "addressToTokens",
      "outputs": [
        {
          "internalType": "uint256",
          "name": "tokenId",
          "type": "uint256"
        },
        {
          "internalType": "address",
          "name": "tokenAddress",
          "type": "address"
        },
        {
          "internalType": "address",
          "name": "seller",
          "type": "address"
        },
        {
          "internalType": "address",
          "name": "buyer",
          "type": "address"
        },
        {
          "internalType": "uint256",
          "name": "price",
          "type": "uint256"
        },
        {
          "internalType": "bool",
          "name": "isSold",
          "type": "bool"
        }
      ],
      "stateMutability": "view",
      "type": "function"
    },
    {
      "inputs": [],
      "name": "admin",
      "outputs": [
        {
          "internalType": "address",
          "name": "",
          "type": "address"
        }
      ],
      "stateMutability": "view",
      "type": "function"
    },
    {
      "inputs": [
        {
          "internalType": "uint256",
          "name": "",
          "type": "uint256"
        }
      ],
      "name": "buyers",
      "outputs": [
        {
          "internalType": "address",
          "name": "",
          "type": "address"
        }
      ],
      "stateMutability": "view",
      "type": "function"
    },
    {
      "inputs": [
        {
          "internalType": "uint256",
          "name": "_tokenId",
          "type": "uint256"
        },
        {
          "internalType": "address",
          "name": "_tokenAddress",
          "type": "address"
        }
      ],
      "name": "cancelSale",
      "outputs": [],
      "stateMutability": "nonpayable",
      "type": "function"
    },
    {
      "inputs": [
        {
          "internalType": "contract ISuperToken",
          "name": "token",
          "type": "address"
        },
        {
          "internalType": "address",
          "name": "receiver",
          "type": "address"
        },
        {
          "internalType": "int96",
          "name": "flowRate",
          "type": "int96"
        }
      ],
      "name": "createFlowFromContract",
      "outputs": [],
      "stateMutability": "nonpayable",
      "type": "function"
    },
    {
      "inputs": [
        {
          "internalType": "contract ISuperToken",
          "name": "token",
          "type": "address"
        },
        {
          "internalType": "int96",
          "name": "flowRate",
          "type": "int96"
        }
      ],
      "name": "createFlowIntoContract",
      "outputs": [],
      "stateMutability": "nonpayable",
      "type": "function"
    },
    {
      "inputs": [
        {
          "internalType": "contract ISuperToken",
          "name": "token",
          "type": "address"
        },
        {
          "internalType": "address",
          "name": "receiver",
          "type": "address"
        }
      ],
      "name": "deleteFlowFromContract",
      "outputs": [],
      "stateMutability": "nonpayable",
      "type": "function"
    },
    {
      "inputs": [
        {
          "internalType": "contract ISuperToken",
          "name": "token",
          "type": "address"
        },
        {
          "internalType": "address",
          "name": "_buyer",
          "type": "address"
        }
      ],
      "name": "deleteFlowIntoContract",
      "outputs": [],
      "stateMutability": "nonpayable",
      "type": "function"
    },
    {
      "inputs": [
        {
          "internalType": "uint256",
          "name": "_price",
          "type": "uint256"
        },
        {
          "internalType": "uint256",
          "name": "_tokenId",
          "type": "uint256"
        },
        {
          "internalType": "address",
          "name": "_tokenAddress",
          "type": "address"
        }
      ],
      "name": "editSale",
      "outputs": [],
      "stateMutability": "nonpayable",
      "type": "function"
    },
    {
      "inputs": [
        {
          "internalType": "address",
          "name": "_buyer",
          "type": "address"
        }
      ],
      "name": "getBuyerData",
      "outputs": [
        {
          "components": [
            {
              "internalType": "address",
              "name": "user",
              "type": "address"
            },
            {
              "internalType": "address",
              "name": "seller",
              "type": "address"
            },
            {
              "internalType": "address",
              "name": "tokenAddress",
              "type": "address"
            },
            {
              "internalType": "uint256",
              "name": "tokenId",
              "type": "uint256"
            },
            {
              "internalType": "int96",
              "name": "flowRate",
              "type": "int96"
            },
            {
              "internalType": "uint256",
              "name": "timeStarted",
              "type": "uint256"
            },
            {
              "internalType": "uint256",
              "name": "timeStopped",
              "type": "uint256"
            },
            {
              "internalType": "uint256",
              "name": "estimatedTime",
              "type": "uint256"
            },
            {
              "internalType": "uint256",
              "name": "price",
              "type": "uint256"
            }
          ],
          "internalType": "struct PurchaseNFTOverTime.Buyer[]",
          "name": "",
          "type": "tuple[]"
        }
      ],
      "stateMutability": "view",
      "type": "function"
    },
    {
      "inputs": [],
      "name": "getBuyers",
      "outputs": [
        {
          "internalType": "address[]",
          "name": "",
          "type": "address[]"
        }
      ],
      "stateMutability": "view",
      "type": "function"
    },
    {
      "inputs": [
        {
          "internalType": "address",
          "name": "_seller",
          "type": "address"
        }
      ],
      "name": "getSellerData",
      "outputs": [
        {
          "components": [
            {
              "internalType": "uint256",
              "name": "tokenId",
              "type": "uint256"
            },
            {
              "internalType": "address",
              "name": "tokenAddress",
              "type": "address"
            },
            {
              "internalType": "address",
              "name": "seller",
              "type": "address"
            },
            {
              "internalType": "address",
              "name": "buyer",
              "type": "address"
            },
            {
              "internalType": "uint256",
              "name": "price",
              "type": "uint256"
            },
            {
              "internalType": "bool",
              "name": "isSold",
              "type": "bool"
            }
          ],
          "internalType": "struct PurchaseNFTOverTime.Tokens[]",
          "name": "",
          "type": "tuple[]"
        }
      ],
      "stateMutability": "view",
      "type": "function"
    },
    {
      "inputs": [],
      "name": "getSellers",
      "outputs": [
        {
          "internalType": "address[]",
          "name": "",
          "type": "address[]"
        }
      ],
      "stateMutability": "view",
      "type": "function"
    },
    {
      "inputs": [
        {
          "internalType": "address",
          "name": "",
          "type": "address"
        }
      ],
      "name": "isBuyerAdded",
      "outputs": [
        {
          "internalType": "bool",
          "name": "",
          "type": "bool"
        }
      ],
      "stateMutability": "view",
      "type": "function"
    },
    {
      "inputs": [
        {
          "internalType": "address",
          "name": "",
          "type": "address"
        },
        {
          "internalType": "address",
          "name": "",
          "type": "address"
        },
        {
          "internalType": "uint256",
          "name": "",
          "type": "uint256"
        },
        {
          "internalType": "bytes",
          "name": "",
          "type": "bytes"
        }
      ],
      "name": "onERC721Received",
      "outputs": [
        {
          "internalType": "bytes4",
          "name": "",
          "type": "bytes4"
        }
      ],
      "stateMutability": "pure",
      "type": "function"
    },
    {
      "inputs": [
        {
          "internalType": "address",
          "name": "_buyer",
          "type": "address"
        },
        {
          "internalType": "address",
          "name": "_tokenAddress",
          "type": "address"
        },
        {
          "internalType": "address",
          "name": "_erc20",
          "type": "address"
        },
        {
          "internalType": "uint256",
          "name": "_tokenId",
          "type": "uint256"
        },
        {
          "internalType": "contract ISuperToken",
          "name": "token",
          "type": "address"
        }
      ],
      "name": "purchaseComplete",
      "outputs": [],
      "stateMutability": "nonpayable",
      "type": "function"
    },
    {
      "inputs": [
        {
          "internalType": "uint256",
          "name": "_tokenId",
          "type": "uint256"
        },
        {
          "internalType": "uint256",
          "name": "_price",
          "type": "uint256"
        },
        {
          "internalType": "address",
          "name": "_tokenAddress",
          "type": "address"
        }
      ],
      "name": "putOnSale",
      "outputs": [],
      "stateMutability": "nonpayable",
      "type": "function"
    },
    {
      "inputs": [
        {
          "internalType": "address",
          "name": "",
          "type": "address"
        }
      ],
      "name": "sellerAdded",
      "outputs": [
        {
          "internalType": "bool",
          "name": "",
          "type": "bool"
        }
      ],
      "stateMutability": "view",
      "type": "function"
    },
    {
      "inputs": [
        {
          "internalType": "uint256",
          "name": "",
          "type": "uint256"
        }
      ],
      "name": "sellers",
      "outputs": [
        {
          "internalType": "address",
          "name": "",
          "type": "address"
        }
      ],
      "stateMutability": "view",
      "type": "function"
    },
    {
      "inputs": [
        {
          "internalType": "address",
          "name": "_buyer",
          "type": "address"
        },
        {
          "internalType": "address",
          "name": "_tokenAddress",
          "type": "address"
        },
        {
          "internalType": "address",
          "name": "_erc20",
          "type": "address"
        },
        {
          "internalType": "uint256",
          "name": "_tokenId",
          "type": "uint256"
        },
        {
          "internalType": "uint256",
          "name": "returnValue",
          "type": "uint256"
        },
        {
          "internalType": "contract ISuperToken",
          "name": "token",
          "type": "address"
        }
      ],
      "name": "streamStoppedByUser",
      "outputs": [],
      "stateMutability": "nonpayable",
      "type": "function"
    },
    {
      "inputs": [
        {
          "internalType": "contract ISuperToken",
          "name": "token",
          "type": "address"
        },
        {
          "internalType": "address",
          "name": "receiver",
          "type": "address"
        },
        {
          "internalType": "int96",
          "name": "flowRate",
          "type": "int96"
        }
      ],
      "name": "updateFlowFromContract",
      "outputs": [],
      "stateMutability": "nonpayable",
      "type": "function"
    },
    {
      "inputs": [
        {
          "internalType": "contract ISuperToken",
          "name": "token",
          "type": "address"
        },
        {
          "internalType": "int96",
          "name": "flowRate",
          "type": "int96"
        },
        {
          "internalType": "address",
          "name": "_buyer",
          "type": "address"
        }
      ],
      "name": "updateFlowIntoContract",
      "outputs": [],
      "stateMutability": "nonpayable",
      "type": "function"
    }
  ],
  "bytecode": "0x608060405234801561001057600080fd5b50336000806101000a81548173ffffffffffffffffffffffffffffffffffffffff021916908373ffffffffffffffffffffffffffffffffffffffff160217905550615dc580620000616000396000f3fe60806040526004361061014a5760003560e01c80638d85d3b3116100b6578063c3d7ec051161006f578063c3d7ec05146104ab578063cee26ed5146104e8578063d6bf522114610525578063f2aa82181461054e578063f64bfaba1461058b578063f851a440146105b65761014a565b80638d85d3b3146103b557806398a041b1146103de578063a5510b3214610407578063abb9a5ab14610430578063b9f7b12b14610459578063c2f7c654146104825761014a565b80637e7fbfb6116101085780637e7fbfb6146102745780637ee454cb146102b1578063813d2ad8146102dc5780638714a76a146103055780638a9f817c146103475780638bab49c51461038c5761014a565b8062fb77be1461014f578063097e69ef14610178578063097e7ca6146101a1578063150b7a02146101de57806319e406a11461021b578063696a4abb14610258575b600080fd5b34801561015b57600080fd5b50610176600480360381019061017191906149b2565b6105e1565b005b34801561018457600080fd5b5061019f600480360381019061019a9190614a66565b610fbf565b005b3480156101ad57600080fd5b506101c860048036038101906101c39190614ab9565b610ff0565b6040516101d59190614b01565b60405180910390f35b3480156101ea57600080fd5b5061020560048036038101906102009190614b81565b611010565b6040516102129190614c44565b60405180910390f35b34801561022757600080fd5b50610242600480360381019061023d9190614ab9565b611025565b60405161024f9190614db6565b60405180910390f35b610272600480360381019061026d9190614dd8565b6111f4565b005b34801561028057600080fd5b5061029b60048036038101906102969190614ab9565b611aee565b6040516102a89190614fdb565b60405180910390f35b3480156102bd57600080fd5b506102c6611cde565b6040516102d391906150ac565b60405180910390f35b3480156102e857600080fd5b5061030360048036038101906102fe91906150ce565b611d6c565b005b34801561031157600080fd5b5061032c6004803603810190610327919061510e565b612255565b60405161033e9695949392919061516c565b60405180910390f35b34801561035357600080fd5b5061036e6004803603810190610369919061510e565b61231b565b604051610383999897969594939291906151dc565b60405180910390f35b34801561039857600080fd5b506103b360048036038101906103ae9190615269565b6123f3565b005b3480156103c157600080fd5b506103dc60048036038101906103d791906152bc565b612426565b005b3480156103ea57600080fd5b506104056004803603810190610400919061530f565b61278b565b005b34801561041357600080fd5b5061042e6004803603810190610429919061534f565b6127bb565b005b34801561043c57600080fd5b506104576004803603810190610452919061538f565b6127ed565b005b34801561046557600080fd5b50610480600480360381019061047b9190614a66565b613544565b005b34801561048e57600080fd5b506104a960048036038101906104a4919061530f565b613575565b005b3480156104b757600080fd5b506104d260048036038101906104cd9190614ab9565b6135a5565b6040516104df9190614b01565b60405180910390f35b3480156104f457600080fd5b5061050f600480360381019061050a919061541c565b6135c5565b60405161051c9190615449565b60405180910390f35b34801561053157600080fd5b5061054c600480360381019061054791906152bc565b613604565b005b34801561055a57600080fd5b506105756004803603810190610570919061541c565b613972565b6040516105829190615449565b60405180910390f35b34801561059757600080fd5b506105a06139b1565b6040516105ad91906150ac565b60405180910390f35b3480156105c257600080fd5b506105cb613a3f565b6040516105d89190615449565b60405180910390f35b60008054906101000a900473ffffffffffffffffffffffffffffffffffffffff1673ffffffffffffffffffffffffffffffffffffffff163373ffffffffffffffffffffffffffffffffffffffff161461066f576040517f08c379a0000000000000000000000000000000000000000000000000000000008152600401610666906154c1565b60405180910390fd5b60005b600660008773ffffffffffffffffffffffffffffffffffffffff1673ffffffffffffffffffffffffffffffffffffffff16815260200190815260200160002080549050811015610fb7578473ffffffffffffffffffffffffffffffffffffffff16600660008873ffffffffffffffffffffffffffffffffffffffff1673ffffffffffffffffffffffffffffffffffffffff1681526020019081526020016000208281548110610724576107236154e1565b5b906000526020600020906009020160020160009054906101000a900473ffffffffffffffffffffffffffffffffffffffff1673ffffffffffffffffffffffffffffffffffffffff161480156107da575082600660008873ffffffffffffffffffffffffffffffffffffffff1673ffffffffffffffffffffffffffffffffffffffff16815260200190815260200160002082815481106107c6576107c56154e1565b5b906000526020600020906009020160030154145b15610fa457600660008773ffffffffffffffffffffffffffffffffffffffff1673ffffffffffffffffffffffffffffffffffffffff16815260200190815260200160002081815481106108305761082f6154e1565b5b9060005260206000209060090201600701544210610fa3576000600660008873ffffffffffffffffffffffffffffffffffffffff1673ffffffffffffffffffffffffffffffffffffffff168152602001908152602001600020828154811061089b5761089a6154e1565b5b90600052602060002090600902016006015403610fa257600660008773ffffffffffffffffffffffffffffffffffffffff1673ffffffffffffffffffffffffffffffffffffffff1681526020019081526020016000208181548110610903576109026154e1565b5b906000526020600020906009020160040160009054906101000a9004600b0b600b0b61095033308573ffffffffffffffffffffffffffffffffffffffff16613a639092919063ffffffff16565b600b0b0361096757610962828761278b565b610a17565b610a1682600660008973ffffffffffffffffffffffffffffffffffffffff1673ffffffffffffffffffffffffffffffffffffffff16815260200190815260200160002083815481106109bc576109bb6154e1565b5b906000526020600020906009020160040160009054906101000a9004600b0b610a0633308773ffffffffffffffffffffffffffffffffffffffff16613a639092919063ffffffff16565b610a10919061553f565b886123f3565b5b600660008773ffffffffffffffffffffffffffffffffffffffff1673ffffffffffffffffffffffffffffffffffffffff1681526020019081526020016000208181548110610a6857610a676154e1565b5b906000526020600020906009020160040160009054906101000a9004600b0b600b0b610b3730600660008a73ffffffffffffffffffffffffffffffffffffffff1673ffffffffffffffffffffffffffffffffffffffff1681526020019081526020016000208481548110610adf57610ade6154e1565b5b906000526020600020906009020160010160009054906101000a900473ffffffffffffffffffffffffffffffffffffffff168573ffffffffffffffffffffffffffffffffffffffff16613a639092919063ffffffff16565b600b0b03610bd057610bcb82600660008973ffffffffffffffffffffffffffffffffffffffff1673ffffffffffffffffffffffffffffffffffffffff1681526020019081526020016000208381548110610b9457610b936154e1565b5b906000526020600020906009020160010160009054906101000a900473ffffffffffffffffffffffffffffffffffffffff16613575565b610d84565b610d8382600660008973ffffffffffffffffffffffffffffffffffffffff1673ffffffffffffffffffffffffffffffffffffffff1681526020019081526020016000208381548110610c2557610c246154e1565b5b906000526020600020906009020160010160009054906101000a900473ffffffffffffffffffffffffffffffffffffffff16600660008a73ffffffffffffffffffffffffffffffffffffffff1673ffffffffffffffffffffffffffffffffffffffff1681526020019081526020016000208481548110610ca857610ca76154e1565b5b906000526020600020906009020160040160009054906101000a9004600b0b610d7430600660008d73ffffffffffffffffffffffffffffffffffffffff1673ffffffffffffffffffffffffffffffffffffffff1681526020019081526020016000208781548110610d1c57610d1b6154e1565b5b906000526020600020906009020160010160009054906101000a900473ffffffffffffffffffffffffffffffffffffffff168873ffffffffffffffffffffffffffffffffffffffff16613a639092919063ffffffff16565b610d7e91906155a3565b610fbf565b5b600660008773ffffffffffffffffffffffffffffffffffffffff1673ffffffffffffffffffffffffffffffffffffffff1681526020019081526020016000208181548110610dd557610dd46154e1565b5b906000526020600020906009020160070154600660008873ffffffffffffffffffffffffffffffffffffffff1673ffffffffffffffffffffffffffffffffffffffff1681526020019081526020016000208281548110610e3857610e376154e1565b5b9060005260206000209060090201600601819055508373ffffffffffffffffffffffffffffffffffffffff1663a9059cbb87600660008a73ffffffffffffffffffffffffffffffffffffffff1673ffffffffffffffffffffffffffffffffffffffff1681526020019081526020016000208481548110610ebb57610eba6154e1565b5b9060005260206000209060090201600801546040518363ffffffff1660e01b8152600401610eea929190615607565b6020604051808303816000875af1158015610f09573d6000803e3d6000fd5b505050506040513d601f19601f82011682018060405250810190610f2d919061565c565b508473ffffffffffffffffffffffffffffffffffffffff166342842e0e3088866040518463ffffffff1660e01b8152600401610f6b93929190615689565b600060405180830381600087803b158015610f8557600080fd5b505af1158015610f99573d6000803e3d6000fd5b50505050610fb7565b5b5b8080610faf906156c0565b915050610672565b505050505050565b610fea82828573ffffffffffffffffffffffffffffffffffffffff16613b039092919063ffffffff16565b50505050565b60026020528060005260406000206000915054906101000a900460ff1681565b600063150b7a0260e01b905095945050505050565b6060600360008373ffffffffffffffffffffffffffffffffffffffff1673ffffffffffffffffffffffffffffffffffffffff168152602001908152602001600020805480602002602001604051908101604052809291908181526020016000905b828210156111e957838290600052602060002090600602016040518060c0016040529081600082015481526020016001820160009054906101000a900473ffffffffffffffffffffffffffffffffffffffff1673ffffffffffffffffffffffffffffffffffffffff1673ffffffffffffffffffffffffffffffffffffffff1681526020016002820160009054906101000a900473ffffffffffffffffffffffffffffffffffffffff1673ffffffffffffffffffffffffffffffffffffffff1673ffffffffffffffffffffffffffffffffffffffff1681526020016003820160009054906101000a900473ffffffffffffffffffffffffffffffffffffffff1673ffffffffffffffffffffffffffffffffffffffff1673ffffffffffffffffffffffffffffffffffffffff168152602001600482015481526020016005820160009054906101000a900460ff16151515158152505081526020019060010190611086565b505050509050919050565b60005b600360008873ffffffffffffffffffffffffffffffffffffffff1673ffffffffffffffffffffffffffffffffffffffff16815260200190815260200160002080549050811015611ae5578573ffffffffffffffffffffffffffffffffffffffff16600360008973ffffffffffffffffffffffffffffffffffffffff1673ffffffffffffffffffffffffffffffffffffffff16815260200190815260200160002082815481106112a9576112a86154e1565b5b906000526020600020906006020160010160009054906101000a900473ffffffffffffffffffffffffffffffffffffffff1673ffffffffffffffffffffffffffffffffffffffff1614801561135f575084600360008973ffffffffffffffffffffffffffffffffffffffff1673ffffffffffffffffffffffffffffffffffffffff168152602001908152602001600020828154811061134b5761134a6154e1565b5b906000526020600020906006020160000154145b15611ad25760001515600360008973ffffffffffffffffffffffffffffffffffffffff1673ffffffffffffffffffffffffffffffffffffffff16815260200190815260200160002082815481106113b9576113b86154e1565b5b906000526020600020906006020160050160009054906101000a900460ff16151503611a975760001515600560003373ffffffffffffffffffffffffffffffffffffffff1673ffffffffffffffffffffffffffffffffffffffff16815260200190815260200160002060009054906101000a900460ff161515036114f3576004339080600181540180825580915050600190039060005260206000200160009091909190916101000a81548173ffffffffffffffffffffffffffffffffffffffff021916908373ffffffffffffffffffffffffffffffffffffffff1602179055506001600560003373ffffffffffffffffffffffffffffffffffffffff1673ffffffffffffffffffffffffffffffffffffffff16815260200190815260200160002060006101000a81548160ff0219169083151502179055505b8273ffffffffffffffffffffffffffffffffffffffff166323b872dd3330600360008c73ffffffffffffffffffffffffffffffffffffffff1673ffffffffffffffffffffffffffffffffffffffff1681526020019081526020016000208581548110611562576115616154e1565b5b9060005260206000209060060201600401546040518463ffffffff1660e01b815260040161159293929190615689565b6020604051808303816000875af11580156115b1573d6000803e3d6000fd5b505050506040513d601f19601f820116820180604052508101906115d5919061565c565b50600660003373ffffffffffffffffffffffffffffffffffffffff1673ffffffffffffffffffffffffffffffffffffffff1681526020019081526020016000206040518061012001604052803373ffffffffffffffffffffffffffffffffffffffff1681526020018973ffffffffffffffffffffffffffffffffffffffff1681526020018873ffffffffffffffffffffffffffffffffffffffff16815260200187815260200186600b0b81526020014281526020016000815260200160008152602001600360008b73ffffffffffffffffffffffffffffffffffffffff1673ffffffffffffffffffffffffffffffffffffffff16815260200190815260200160002084815481106116e9576116e86154e1565b5b906000526020600020906006020160040154815250908060018154018082558091505060019003906000526020600020906009020160009091909190915060008201518160000160006101000a81548173ffffffffffffffffffffffffffffffffffffffff021916908373ffffffffffffffffffffffffffffffffffffffff16021790555060208201518160010160006101000a81548173ffffffffffffffffffffffffffffffffffffffff021916908373ffffffffffffffffffffffffffffffffffffffff16021790555060408201518160020160006101000a81548173ffffffffffffffffffffffffffffffffffffffff021916908373ffffffffffffffffffffffffffffffffffffffff1602179055506060820151816003015560808201518160040160006101000a8154816bffffffffffffffffffffffff0219169083600b0b6bffffffffffffffffffffffff16021790555060a0820151816005015560c0820151816006015560e08201518160070155610100820151816008015550506001600360008973ffffffffffffffffffffffffffffffffffffffff1673ffffffffffffffffffffffffffffffffffffffff16815260200190815260200160002082815481106118be576118bd6154e1565b5b906000526020600020906006020160050160006101000a81548160ff02191690831515021790555033600360008973ffffffffffffffffffffffffffffffffffffffff1673ffffffffffffffffffffffffffffffffffffffff1681526020019081526020016000208281548110611938576119376154e1565b5b906000526020600020906006020160030160006101000a81548173ffffffffffffffffffffffffffffffffffffffff021916908373ffffffffffffffffffffffffffffffffffffffff16021790555060006119b433308573ffffffffffffffffffffffffffffffffffffffff16613a639092919063ffffffff16565b600b0b036119cb576119c682856127bb565b611a0c565b611a0b82856119fb33308773ffffffffffffffffffffffffffffffffffffffff16613a639092919063ffffffff16565b611a0591906155a3565b336123f3565b5b6000611a3930898573ffffffffffffffffffffffffffffffffffffffff16613a639092919063ffffffff16565b600b0b03611a5157611a4c828886613544565b611a92565b611a91828886611a82308c8873ffffffffffffffffffffffffffffffffffffffff16613a639092919063ffffffff16565b611a8c91906155a3565b610fbf565b5b611ae5565b6040517f08c379a0000000000000000000000000000000000000000000000000000000008152600401611ac990615754565b60405180910390fd5b8080611add906156c0565b9150506111f7565b50505050505050565b6060600660008373ffffffffffffffffffffffffffffffffffffffff1673ffffffffffffffffffffffffffffffffffffffff168152602001908152602001600020805480602002602001604051908101604052809291908181526020016000905b82821015611cd35783829060005260206000209060090201604051806101200160405290816000820160009054906101000a900473ffffffffffffffffffffffffffffffffffffffff1673ffffffffffffffffffffffffffffffffffffffff1673ffffffffffffffffffffffffffffffffffffffff1681526020016001820160009054906101000a900473ffffffffffffffffffffffffffffffffffffffff1673ffffffffffffffffffffffffffffffffffffffff1673ffffffffffffffffffffffffffffffffffffffff1681526020016002820160009054906101000a900473ffffffffffffffffffffffffffffffffffffffff1673ffffffffffffffffffffffffffffffffffffffff1673ffffffffffffffffffffffffffffffffffffffff168152602001600382015481526020016004820160009054906101000a9004600b0b600b0b600b0b815260200160058201548152602001600682015481526020016007820154815260200160088201548152505081526020019060010190611b4f565b505050509050919050565b60606001805480602002602001604051908101604052809291908181526020018280548015611d6257602002820191906000526020600020905b8160009054906101000a900473ffffffffffffffffffffffffffffffffffffffff1673ffffffffffffffffffffffffffffffffffffffff1681526020019060010190808311611d18575b5050505050905090565b60005b600360003373ffffffffffffffffffffffffffffffffffffffff1673ffffffffffffffffffffffffffffffffffffffff168152602001908152602001600020805490508110156122505782600360003373ffffffffffffffffffffffffffffffffffffffff1673ffffffffffffffffffffffffffffffffffffffff1681526020019081526020016000208281548110611e0b57611e0a6154e1565b5b906000526020600020906006020160000154148015611ed757508173ffffffffffffffffffffffffffffffffffffffff16600360003373ffffffffffffffffffffffffffffffffffffffff1673ffffffffffffffffffffffffffffffffffffffff1681526020019081526020016000208281548110611e8d57611e8c6154e1565b5b906000526020600020906006020160010160009054906101000a900473ffffffffffffffffffffffffffffffffffffffff1673ffffffffffffffffffffffffffffffffffffffff16145b1561223d573373ffffffffffffffffffffffffffffffffffffffff16600360003373ffffffffffffffffffffffffffffffffffffffff1673ffffffffffffffffffffffffffffffffffffffff1681526020019081526020016000208281548110611f4457611f436154e1565b5b906000526020600020906006020160020160009054906101000a900473ffffffffffffffffffffffffffffffffffffffff1673ffffffffffffffffffffffffffffffffffffffff1614801561200c575060001515600360003373ffffffffffffffffffffffffffffffffffffffff1673ffffffffffffffffffffffffffffffffffffffff1681526020019081526020016000208281548110611fe957611fe86154e1565b5b906000526020600020906006020160050160009054906101000a900460ff161515145b1561220257600360003373ffffffffffffffffffffffffffffffffffffffff1673ffffffffffffffffffffffffffffffffffffffff1681526020019081526020016000208181548110612062576120616154e1565b5b906000526020600020906006020160010160009054906101000a900473ffffffffffffffffffffffffffffffffffffffff1673ffffffffffffffffffffffffffffffffffffffff166342842e0e3033866040518463ffffffff1660e01b81526004016120d093929190615689565b600060405180830381600087803b1580156120ea57600080fd5b505af11580156120fe573d6000803e3d6000fd5b50505050600360003373ffffffffffffffffffffffffffffffffffffffff1673ffffffffffffffffffffffffffffffffffffffff1681526020019081526020016000208181548110612153576121526154e1565b5b90600052602060002090600602016000808201600090556001820160006101000a81549073ffffffffffffffffffffffffffffffffffffffff02191690556002820160006101000a81549073ffffffffffffffffffffffffffffffffffffffff02191690556003820160006101000a81549073ffffffffffffffffffffffffffffffffffffffff021916905560048201600090556005820160006101000a81549060ff02191690555050612250565b6040517f08c379a0000000000000000000000000000000000000000000000000000000008152600401612234906157e6565b60405180910390fd5b8080612248906156c0565b915050611d6f565b505050565b6003602052816000526040600020818154811061227157600080fd5b9060005260206000209060060201600091509150508060000154908060010160009054906101000a900473ffffffffffffffffffffffffffffffffffffffff16908060020160009054906101000a900473ffffffffffffffffffffffffffffffffffffffff16908060030160009054906101000a900473ffffffffffffffffffffffffffffffffffffffff16908060040154908060050160009054906101000a900460ff16905086565b6006602052816000526040600020818154811061233757600080fd5b9060005260206000209060090201600091509150508060000160009054906101000a900473ffffffffffffffffffffffffffffffffffffffff16908060010160009054906101000a900473ffffffffffffffffffffffffffffffffffffffff16908060020160009054906101000a900473ffffffffffffffffffffffffffffffffffffffff16908060030154908060040160009054906101000a9004600b0b908060050154908060060154908060070154908060080154905089565b6124208130848673ffffffffffffffffffffffffffffffffffffffff16613b67909392919063ffffffff16565b50505050565b60005b600360003373ffffffffffffffffffffffffffffffffffffffff1673ffffffffffffffffffffffffffffffffffffffff168152602001908152602001600020805490508110156127855782600360003373ffffffffffffffffffffffffffffffffffffffff1673ffffffffffffffffffffffffffffffffffffffff16815260200190815260200160002082815481106124c5576124c46154e1565b5b90600052602060002090600602016000015414801561259157508173ffffffffffffffffffffffffffffffffffffffff16600360003373ffffffffffffffffffffffffffffffffffffffff1673ffffffffffffffffffffffffffffffffffffffff1681526020019081526020016000208281548110612547576125466154e1565b5b906000526020600020906006020160010160009054906101000a900473ffffffffffffffffffffffffffffffffffffffff1673ffffffffffffffffffffffffffffffffffffffff16145b15612772573373ffffffffffffffffffffffffffffffffffffffff16600360003373ffffffffffffffffffffffffffffffffffffffff1673ffffffffffffffffffffffffffffffffffffffff16815260200190815260200160002082815481106125fe576125fd6154e1565b5b906000526020600020906006020160020160009054906101000a900473ffffffffffffffffffffffffffffffffffffffff1673ffffffffffffffffffffffffffffffffffffffff161480156126c6575060001515600360003373ffffffffffffffffffffffffffffffffffffffff1673ffffffffffffffffffffffffffffffffffffffff16815260200190815260200160002082815481106126a3576126a26154e1565b5b906000526020600020906006020160050160009054906101000a900460ff161515145b156127375783600360003373ffffffffffffffffffffffffffffffffffffffff1673ffffffffffffffffffffffffffffffffffffffff168152602001908152602001600020828154811061271d5761271c6154e1565b5b906000526020600020906006020160040181905550612785565b6040517f08c379a0000000000000000000000000000000000000000000000000000000008152600401612769906157e6565b60405180910390fd5b808061277d906156c0565b915050612429565b50505050565b6127b681308473ffffffffffffffffffffffffffffffffffffffff16613bcd9092919063ffffffff16565b505050565b6127e83330838573ffffffffffffffffffffffffffffffffffffffff16613c31909392919063ffffffff16565b505050565b60008054906101000a900473ffffffffffffffffffffffffffffffffffffffff1673ffffffffffffffffffffffffffffffffffffffff163373ffffffffffffffffffffffffffffffffffffffff161461287b576040517f08c379a0000000000000000000000000000000000000000000000000000000008152600401612872906154c1565b60405180910390fd5b60005b600660008873ffffffffffffffffffffffffffffffffffffffff1673ffffffffffffffffffffffffffffffffffffffff1681526020019081526020016000208054905081101561353b578573ffffffffffffffffffffffffffffffffffffffff16600660008973ffffffffffffffffffffffffffffffffffffffff1673ffffffffffffffffffffffffffffffffffffffff16815260200190815260200160002082815481106129305761292f6154e1565b5b906000526020600020906009020160020160009054906101000a900473ffffffffffffffffffffffffffffffffffffffff1673ffffffffffffffffffffffffffffffffffffffff161480156129e6575083600660008973ffffffffffffffffffffffffffffffffffffffff1673ffffffffffffffffffffffffffffffffffffffff16815260200190815260200160002082815481106129d2576129d16154e1565b5b906000526020600020906009020160030154145b15613528576000600660008973ffffffffffffffffffffffffffffffffffffffff1673ffffffffffffffffffffffffffffffffffffffff1681526020019081526020016000208281548110612a3e57612a3d6154e1565b5b906000526020600020906009020160060154036135275742600660008973ffffffffffffffffffffffffffffffffffffffff1673ffffffffffffffffffffffffffffffffffffffff1681526020019081526020016000208281548110612aa757612aa66154e1565b5b906000526020600020906009020160060181905550600660008873ffffffffffffffffffffffffffffffffffffffff1673ffffffffffffffffffffffffffffffffffffffff1681526020019081526020016000208181548110612b0d57612b0c6154e1565b5b906000526020600020906009020160040160009054906101000a9004600b0b600b0b612bdc30600660008b73ffffffffffffffffffffffffffffffffffffffff1673ffffffffffffffffffffffffffffffffffffffff1681526020019081526020016000208481548110612b8457612b836154e1565b5b906000526020600020906009020160010160009054906101000a900473ffffffffffffffffffffffffffffffffffffffff168573ffffffffffffffffffffffffffffffffffffffff16613a639092919063ffffffff16565b600b0b03612c7557612c7082600660008a73ffffffffffffffffffffffffffffffffffffffff1673ffffffffffffffffffffffffffffffffffffffff1681526020019081526020016000208381548110612c3957612c386154e1565b5b906000526020600020906009020160010160009054906101000a900473ffffffffffffffffffffffffffffffffffffffff16613575565b612e29565b612e2882600660008a73ffffffffffffffffffffffffffffffffffffffff1673ffffffffffffffffffffffffffffffffffffffff1681526020019081526020016000208381548110612cca57612cc96154e1565b5b906000526020600020906009020160010160009054906101000a900473ffffffffffffffffffffffffffffffffffffffff16600660008b73ffffffffffffffffffffffffffffffffffffffff1673ffffffffffffffffffffffffffffffffffffffff1681526020019081526020016000208481548110612d4d57612d4c6154e1565b5b906000526020600020906009020160040160009054906101000a9004600b0b612e1930600660008e73ffffffffffffffffffffffffffffffffffffffff1673ffffffffffffffffffffffffffffffffffffffff1681526020019081526020016000208781548110612dc157612dc06154e1565b5b906000526020600020906009020160010160009054906101000a900473ffffffffffffffffffffffffffffffffffffffff168873ffffffffffffffffffffffffffffffffffffffff16613a639092919063ffffffff16565b612e2391906155a3565b610fbf565b5b8573ffffffffffffffffffffffffffffffffffffffff166342842e0e30600660008b73ffffffffffffffffffffffffffffffffffffffff1673ffffffffffffffffffffffffffffffffffffffff1681526020019081526020016000208481548110612e9757612e966154e1565b5b906000526020600020906009020160010160009054906101000a900473ffffffffffffffffffffffffffffffffffffffff16876040518463ffffffff1660e01b8152600401612ee893929190615689565b600060405180830381600087803b158015612f0257600080fd5b505af1158015612f16573d6000803e3d6000fd5b505050508473ffffffffffffffffffffffffffffffffffffffff1663a9059cbb88856040518363ffffffff1660e01b8152600401612f55929190615607565b6020604051808303816000875af1158015612f74573d6000803e3d6000fd5b505050506040513d601f19601f82011682018060405250810190612f98919061565c565b5060005b60036000600660008b73ffffffffffffffffffffffffffffffffffffffff1673ffffffffffffffffffffffffffffffffffffffff1681526020019081526020016000208481548110612ff157612ff06154e1565b5b906000526020600020906009020160010160009054906101000a900473ffffffffffffffffffffffffffffffffffffffff1673ffffffffffffffffffffffffffffffffffffffff1673ffffffffffffffffffffffffffffffffffffffff16815260200190815260200160002080549050811015613521578460036000600660008c73ffffffffffffffffffffffffffffffffffffffff1673ffffffffffffffffffffffffffffffffffffffff16815260200190815260200160002085815481106130be576130bd6154e1565b5b906000526020600020906009020160010160009054906101000a900473ffffffffffffffffffffffffffffffffffffffff1673ffffffffffffffffffffffffffffffffffffffff1673ffffffffffffffffffffffffffffffffffffffff168152602001908152602001600020828154811061313c5761313b6154e1565b5b90600052602060002090600602016000015414801561328a57508673ffffffffffffffffffffffffffffffffffffffff1660036000600660008c73ffffffffffffffffffffffffffffffffffffffff1673ffffffffffffffffffffffffffffffffffffffff16815260200190815260200160002085815481106131c2576131c16154e1565b5b906000526020600020906009020160010160009054906101000a900473ffffffffffffffffffffffffffffffffffffffff1673ffffffffffffffffffffffffffffffffffffffff1673ffffffffffffffffffffffffffffffffffffffff16815260200190815260200160002082815481106132405761323f6154e1565b5b906000526020600020906006020160010160009054906101000a900473ffffffffffffffffffffffffffffffffffffffff1673ffffffffffffffffffffffffffffffffffffffff16145b1561350e57600060036000600660008c73ffffffffffffffffffffffffffffffffffffffff1673ffffffffffffffffffffffffffffffffffffffff16815260200190815260200160002085815481106132e6576132e56154e1565b5b906000526020600020906009020160010160009054906101000a900473ffffffffffffffffffffffffffffffffffffffff1673ffffffffffffffffffffffffffffffffffffffff1673ffffffffffffffffffffffffffffffffffffffff1681526020019081526020016000208281548110613364576133636154e1565b5b906000526020600020906006020160050160006101000a81548160ff02191690831515021790555060036000600660008b73ffffffffffffffffffffffffffffffffffffffff1673ffffffffffffffffffffffffffffffffffffffff16815260200190815260200160002084815481106133e1576133e06154e1565b5b906000526020600020906009020160010160009054906101000a900473ffffffffffffffffffffffffffffffffffffffff1673ffffffffffffffffffffffffffffffffffffffff1673ffffffffffffffffffffffffffffffffffffffff168152602001908152602001600020818154811061345f5761345e6154e1565b5b90600052602060002090600602016000808201600090556001820160006101000a81549073ffffffffffffffffffffffffffffffffffffffff02191690556002820160006101000a81549073ffffffffffffffffffffffffffffffffffffffff02191690556003820160006101000a81549073ffffffffffffffffffffffffffffffffffffffff021916905560048201600090556005820160006101000a81549060ff02191690555050613521565b8080613519906156c0565b915050612f9c565b5061353b565b5b8080613533906156c0565b91505061287e565b50505050505050565b61356f82828573ffffffffffffffffffffffffffffffffffffffff16613c979092919063ffffffff16565b50505050565b6135a030828473ffffffffffffffffffffffffffffffffffffffff16613bcd9092919063ffffffff16565b505050565b60056020528060005260406000206000915054906101000a900460ff1681565b600181815481106135d557600080fd5b906000526020600020016000915054906101000a900473ffffffffffffffffffffffffffffffffffffffff1681565b60001515600260003373ffffffffffffffffffffffffffffffffffffffff1673ffffffffffffffffffffffffffffffffffffffff16815260200190815260200160002060009054906101000a900460ff16151503613718576001339080600181540180825580915050600190039060005260206000200160009091909190916101000a81548173ffffffffffffffffffffffffffffffffffffffff021916908373ffffffffffffffffffffffffffffffffffffffff1602179055506001600260003373ffffffffffffffffffffffffffffffffffffffff1673ffffffffffffffffffffffffffffffffffffffff16815260200190815260200160002060006101000a81548160ff0219169083151502179055505b600360003373ffffffffffffffffffffffffffffffffffffffff1673ffffffffffffffffffffffffffffffffffffffff1681526020019081526020016000206040518060c001604052808581526020018373ffffffffffffffffffffffffffffffffffffffff1681526020013373ffffffffffffffffffffffffffffffffffffffff168152602001600073ffffffffffffffffffffffffffffffffffffffff1681526020018481526020016000151581525090806001815401808255809150506001900390600052602060002090600602016000909190919091506000820151816000015560208201518160010160006101000a81548173ffffffffffffffffffffffffffffffffffffffff021916908373ffffffffffffffffffffffffffffffffffffffff16021790555060408201518160020160006101000a81548173ffffffffffffffffffffffffffffffffffffffff021916908373ffffffffffffffffffffffffffffffffffffffff16021790555060608201518160030160006101000a81548173ffffffffffffffffffffffffffffffffffffffff021916908373ffffffffffffffffffffffffffffffffffffffff1602179055506080820151816004015560a08201518160050160006101000a81548160ff02191690831515021790555050508073ffffffffffffffffffffffffffffffffffffffff166342842e0e3330866040518463ffffffff1660e01b815260040161393b93929190615689565b600060405180830381600087803b15801561395557600080fd5b505af1158015613969573d6000803e3d6000fd5b50505050505050565b6004818154811061398257600080fd5b906000526020600020016000915054906101000a900473ffffffffffffffffffffffffffffffffffffffff1681565b60606004805480602002602001604051908101604052809291908181526020018280548015613a3557602002820191906000526020600020905b8160009054906101000a900473ffffffffffffffffffffffffffffffffffffffff1673ffffffffffffffffffffffffffffffffffffffff16815260200190600101908083116139eb575b5050505050905090565b60008054906101000a900473ffffffffffffffffffffffffffffffffffffffff1681565b600080613a6f85613cfb565b9150508073ffffffffffffffffffffffffffffffffffffffff1663e6a1e8888686866040518463ffffffff1660e01b8152600401613aaf93929190615865565b608060405180830381865afa158015613acc573d6000803e3d6000fd5b505050506040513d601f19601f82011682018060405250810190613af091906158c6565b9091925090505080925050509392505050565b6000613b5e848484600067ffffffffffffffff811115613b2657613b2561592d565b5b6040519080825280601f01601f191660200182016040528015613b585781602001600182028036833780820191505090505b50613f3c565b90509392505050565b6000613bc385858585600067ffffffffffffffff811115613b8b57613b8a61592d565b5b6040519080825280601f01601f191660200182016040528015613bbd5781602001600182028036833780820191505090505b506140a3565b9050949350505050565b6000613c28848484600067ffffffffffffffff811115613bf057613bef61592d565b5b6040519080825280601f01601f191660200182016040528015613c225781602001600182028036833780820191505090505b5061420d565b90509392505050565b6000613c8d85858585600067ffffffffffffffff811115613c5557613c5461592d565b5b6040519080825280601f01601f191660200182016040528015613c875781602001600182028036833780820191505090505b50614374565b9050949350505050565b6000613cf2848484600067ffffffffffffffff811115613cba57613cb961592d565b5b6040519080825280601f01601f191660200182016040528015613cec5781602001600182028036833780820191505090505b506144de565b90509392505050565b6000807f65599bf746e17a00ea62e3610586992d88101b78eec3cf380706621fb97ea8375491507fb969d79d88acd02d04ed7ee7d43b949e7daf093d363abcfbbc43dfdfd1ce969a549050600073ffffffffffffffffffffffffffffffffffffffff168173ffffffffffffffffffffffffffffffffffffffff1603613ebd57600073ffffffffffffffffffffffffffffffffffffffff168273ffffffffffffffffffffffffffffffffffffffff1603613e20578273ffffffffffffffffffffffffffffffffffffffff166320bc44256040518163ffffffff1660e01b8152600401602060405180830381865afa158015613df9573d6000803e3d6000fd5b505050506040513d601f19601f82011682018060405250810190613e1d9190615971565b91505b8173ffffffffffffffffffffffffffffffffffffffff1663b6d200de7fa9214cc96615e0085d3bb077758db69497dc2dce3b2b1e97bc93c3d18d83efd36040518263ffffffff1660e01b8152600401613e7991906159b7565b602060405180830381865afa158015613e96573d6000803e3d6000fd5b505050506040513d601f19601f82011682018060405250810190613eba9190615a10565b90505b600073ffffffffffffffffffffffffffffffffffffffff168273ffffffffffffffffffffffffffffffffffffffff1603613efa57613ef9615a3d565b5b600073ffffffffffffffffffffffffffffffffffffffff168173ffffffffffffffffffffffffffffffffffffffff1603613f3757613f36615a3d565b5b915091565b6000806000613f4a87614645565b915091508173ffffffffffffffffffffffffffffffffffffffff166339255d5b828373ffffffffffffffffffffffffffffffffffffffff166350209a628b8b8b600067ffffffffffffffff811115613fa557613fa461592d565b5b6040519080825280601f01601f191660200182016040528015613fd75781602001600182028036833780820191505090505b50604051602401613feb9493929190615afc565b604051602081830303815290604052915060e01b6020820180517bffffffffffffffffffffffffffffffffffffffffffffffffffffffff8381831617835250505050876040518463ffffffff1660e01b815260040161404c93929190615b69565b6000604051808303816000875af115801561406b573d6000803e3d6000fd5b505050506040513d6000823e3d601f19601f820116820180604052508101906140949190615ca0565b50600192505050949350505050565b60008060006140b188614645565b915091508173ffffffffffffffffffffffffffffffffffffffff166339255d5b828373ffffffffffffffffffffffffffffffffffffffff1663354b95908c8c8c8c600067ffffffffffffffff81111561410d5761410c61592d565b5b6040519080825280601f01601f19166020018201604052801561413f5781602001600182028036833780820191505090505b50604051602401614154959493929190615ce9565b604051602081830303815290604052915060e01b6020820180517bffffffffffffffffffffffffffffffffffffffffffffffffffffffff8381831617835250505050876040518463ffffffff1660e01b81526004016141b593929190615b69565b6000604051808303816000875af11580156141d4573d6000803e3d6000fd5b505050506040513d6000823e3d601f19601f820116820180604052508101906141fd9190615ca0565b5060019250505095945050505050565b600080600061421b87614645565b915091508173ffffffffffffffffffffffffffffffffffffffff166339255d5b828373ffffffffffffffffffffffffffffffffffffffff1663b4b333c68b8b8b600067ffffffffffffffff8111156142765761427561592d565b5b6040519080825280601f01601f1916602001820160405280156142a85781602001600182028036833780820191505090505b506040516024016142bc9493929190615d43565b604051602081830303815290604052915060e01b6020820180517bffffffffffffffffffffffffffffffffffffffffffffffffffffffff8381831617835250505050876040518463ffffffff1660e01b815260040161431d93929190615b69565b6000604051808303816000875af115801561433c573d6000803e3d6000fd5b505050506040513d6000823e3d601f19601f820116820180604052508101906143659190615ca0565b50600192505050949350505050565b600080600061438288614645565b915091508173ffffffffffffffffffffffffffffffffffffffff166339255d5b828373ffffffffffffffffffffffffffffffffffffffff166394229ecb8c8c8c8c600067ffffffffffffffff8111156143de576143dd61592d565b5b6040519080825280601f01601f1916602001820160405280156144105781602001600182028036833780820191505090505b50604051602401614425959493929190615ce9565b604051602081830303815290604052915060e01b6020820180517bffffffffffffffffffffffffffffffffffffffffffffffffffffffff8381831617835250505050876040518463ffffffff1660e01b815260040161448693929190615b69565b6000604051808303816000875af11580156144a5573d6000803e3d6000fd5b505050506040513d6000823e3d601f19601f820116820180604052508101906144ce9190615ca0565b5060019250505095945050505050565b60008060006144ec87614645565b915091508173ffffffffffffffffffffffffffffffffffffffff166339255d5b828373ffffffffffffffffffffffffffffffffffffffff166362fc305e8b8b8b600067ffffffffffffffff8111156145475761454661592d565b5b6040519080825280601f01601f1916602001820160405280156145795781602001600182028036833780820191505090505b5060405160240161458d9493929190615afc565b604051602081830303815290604052915060e01b6020820180517bffffffffffffffffffffffffffffffffffffffffffffffffffffffff8381831617835250505050876040518463ffffffff1660e01b81526004016145ee93929190615b69565b6000604051808303816000875af115801561460d573d6000803e3d6000fd5b505050506040513d6000823e3d601f19601f820116820180604052508101906146369190615ca0565b50600192505050949350505050565b6000807f65599bf746e17a00ea62e3610586992d88101b78eec3cf380706621fb97ea8375491507fb969d79d88acd02d04ed7ee7d43b949e7daf093d363abcfbbc43dfdfd1ce969a549050600073ffffffffffffffffffffffffffffffffffffffff168173ffffffffffffffffffffffffffffffffffffffff160361484d57600073ffffffffffffffffffffffffffffffffffffffff168273ffffffffffffffffffffffffffffffffffffffff160361476a578273ffffffffffffffffffffffffffffffffffffffff166320bc44256040518163ffffffff1660e01b8152600401602060405180830381865afa158015614743573d6000803e3d6000fd5b505050506040513d601f19601f820116820180604052508101906147679190615971565b91505b8173ffffffffffffffffffffffffffffffffffffffff1663b6d200de7fa9214cc96615e0085d3bb077758db69497dc2dce3b2b1e97bc93c3d18d83efd36040518263ffffffff1660e01b81526004016147c391906159b7565b602060405180830381865afa1580156147e0573d6000803e3d6000fd5b505050506040513d601f19601f820116820180604052508101906148049190615a10565b9050817f65599bf746e17a00ea62e3610586992d88101b78eec3cf380706621fb97ea83755807fb969d79d88acd02d04ed7ee7d43b949e7daf093d363abcfbbc43dfdfd1ce969a555b600073ffffffffffffffffffffffffffffffffffffffff168273ffffffffffffffffffffffffffffffffffffffff160361488a57614889615a3d565b5b600073ffffffffffffffffffffffffffffffffffffffff168173ffffffffffffffffffffffffffffffffffffffff16036148c7576148c6615a3d565b5b915091565b6000604051905090565b600080fd5b600080fd5b600073ffffffffffffffffffffffffffffffffffffffff82169050919050565b600061490b826148e0565b9050919050565b61491b81614900565b811461492657600080fd5b50565b60008135905061493881614912565b92915050565b6000819050919050565b6149518161493e565b811461495c57600080fd5b50565b60008135905061496e81614948565b92915050565b600061497f82614900565b9050919050565b61498f81614974565b811461499a57600080fd5b50565b6000813590506149ac81614986565b92915050565b600080600080600060a086880312156149ce576149cd6148d6565b5b60006149dc88828901614929565b95505060206149ed88828901614929565b94505060406149fe88828901614929565b9350506060614a0f8882890161495f565b9250506080614a208882890161499d565b9150509295509295909350565b600081600b0b9050919050565b614a4381614a2d565b8114614a4e57600080fd5b50565b600081359050614a6081614a3a565b92915050565b600080600060608486031215614a7f57614a7e6148d6565b5b6000614a8d8682870161499d565b9350506020614a9e86828701614929565b9250506040614aaf86828701614a51565b9150509250925092565b600060208284031215614acf57614ace6148d6565b5b6000614add84828501614929565b91505092915050565b60008115159050919050565b614afb81614ae6565b82525050565b6000602082019050614b166000830184614af2565b92915050565b600080fd5b600080fd5b600080fd5b60008083601f840112614b4157614b40614b1c565b5b8235905067ffffffffffffffff811115614b5e57614b5d614b21565b5b602083019150836001820283011115614b7a57614b79614b26565b5b9250929050565b600080600080600060808688031215614b9d57614b9c6148d6565b5b6000614bab88828901614929565b9550506020614bbc88828901614929565b9450506040614bcd8882890161495f565b935050606086013567ffffffffffffffff811115614bee57614bed6148db565b5b614bfa88828901614b2b565b92509250509295509295909350565b60007fffffffff0000000000000000000000000000000000000000000000000000000082169050919050565b614c3e81614c09565b82525050565b6000602082019050614c596000830184614c35565b92915050565b600081519050919050565b600082825260208201905092915050565b6000819050602082019050919050565b614c948161493e565b82525050565b614ca381614900565b82525050565b614cb281614ae6565b82525050565b60c082016000820151614cce6000850182614c8b565b506020820151614ce16020850182614c9a565b506040820151614cf46040850182614c9a565b506060820151614d076060850182614c9a565b506080820151614d1a6080850182614c8b565b5060a0820151614d2d60a0850182614ca9565b50505050565b6000614d3f8383614cb8565b60c08301905092915050565b6000602082019050919050565b6000614d6382614c5f565b614d6d8185614c6a565b9350614d7883614c7b565b8060005b83811015614da9578151614d908882614d33565b9750614d9b83614d4b565b925050600181019050614d7c565b5085935050505092915050565b60006020820190508181036000830152614dd08184614d58565b905092915050565b60008060008060008060c08789031215614df557614df46148d6565b5b6000614e0389828a01614929565b9650506020614e1489828a01614929565b9550506040614e2589828a0161495f565b9450506060614e3689828a01614a51565b9350506080614e4789828a01614929565b92505060a0614e5889828a0161499d565b9150509295509295509295565b600081519050919050565b600082825260208201905092915050565b6000819050602082019050919050565b614e9a81614a2d565b82525050565b61012082016000820151614eb76000850182614c9a565b506020820151614eca6020850182614c9a565b506040820151614edd6040850182614c9a565b506060820151614ef06060850182614c8b565b506080820151614f036080850182614e91565b5060a0820151614f1660a0850182614c8b565b5060c0820151614f2960c0850182614c8b565b5060e0820151614f3c60e0850182614c8b565b50610100820151614f51610100850182614c8b565b50505050565b6000614f638383614ea0565b6101208301905092915050565b6000602082019050919050565b6000614f8882614e65565b614f928185614e70565b9350614f9d83614e81565b8060005b83811015614fce578151614fb58882614f57565b9750614fc083614f70565b925050600181019050614fa1565b5085935050505092915050565b60006020820190508181036000830152614ff58184614f7d565b905092915050565b600081519050919050565b600082825260208201905092915050565b6000819050602082019050919050565b60006150358383614c9a565b60208301905092915050565b6000602082019050919050565b600061505982614ffd565b6150638185615008565b935061506e83615019565b8060005b8381101561509f5781516150868882615029565b975061509183615041565b925050600181019050615072565b5085935050505092915050565b600060208201905081810360008301526150c6818461504e565b905092915050565b600080604083850312156150e5576150e46148d6565b5b60006150f38582860161495f565b925050602061510485828601614929565b9150509250929050565b60008060408385031215615125576151246148d6565b5b600061513385828601614929565b92505060206151448582860161495f565b9150509250929050565b6151578161493e565b82525050565b61516681614900565b82525050565b600060c082019050615181600083018961514e565b61518e602083018861515d565b61519b604083018761515d565b6151a8606083018661515d565b6151b5608083018561514e565b6151c260a0830184614af2565b979650505050505050565b6151d681614a2d565b82525050565b6000610120820190506151f2600083018c61515d565b6151ff602083018b61515d565b61520c604083018a61515d565b615219606083018961514e565b61522660808301886151cd565b61523360a083018761514e565b61524060c083018661514e565b61524d60e083018561514e565b61525b61010083018461514e565b9a9950505050505050505050565b600080600060608486031215615282576152816148d6565b5b60006152908682870161499d565b93505060206152a186828701614a51565b92505060406152b286828701614929565b9150509250925092565b6000806000606084860312156152d5576152d46148d6565b5b60006152e38682870161495f565b93505060206152f48682870161495f565b925050604061530586828701614929565b9150509250925092565b60008060408385031215615326576153256148d6565b5b60006153348582860161499d565b925050602061534585828601614929565b9150509250929050565b60008060408385031215615366576153656148d6565b5b60006153748582860161499d565b925050602061538585828601614a51565b9150509250929050565b60008060008060008060c087890312156153ac576153ab6148d6565b5b60006153ba89828a01614929565b96505060206153cb89828a01614929565b95505060406153dc89828a01614929565b94505060606153ed89828a0161495f565b93505060806153fe89828a0161495f565b92505060a061540f89828a0161499d565b9150509295509295509295565b600060208284031215615432576154316148d6565b5b60006154408482850161495f565b91505092915050565b600060208201905061545e600083018461515d565b92915050565b600082825260208201905092915050565b7f4f6e6c79206f776e65722066756e6374696f6e00000000000000000000000000600082015250565b60006154ab601383615464565b91506154b682615475565b602082019050919050565b600060208201905081810360008301526154da8161549e565b9050919050565b7f4e487b7100000000000000000000000000000000000000000000000000000000600052603260045260246000fd5b7f4e487b7100000000000000000000000000000000000000000000000000000000600052601160045260246000fd5b600061554a82614a2d565b915061555583614a2d565b925082820390506b7fffffffffffffffffffffff81137fffffffffffffffffffffffffffffffffffffffff8000000000000000000000008212171561559d5761559c615510565b5b92915050565b60006155ae82614a2d565b91506155b983614a2d565b925082820190507fffffffffffffffffffffffffffffffffffffffff80000000000000000000000081126b7fffffffffffffffffffffff8213171561560157615600615510565b5b92915050565b600060408201905061561c600083018561515d565b615629602083018461514e565b9392505050565b61563981614ae6565b811461564457600080fd5b50565b60008151905061565681615630565b92915050565b600060208284031215615672576156716148d6565b5b600061568084828501615647565b91505092915050565b600060608201905061569e600083018661515d565b6156ab602083018561515d565b6156b8604083018461514e565b949350505050565b60006156cb8261493e565b91507fffffffffffffffffffffffffffffffffffffffffffffffffffffffffffffffff82036156fd576156fc615510565b5b600182019050919050565b7f546f6b656e20697320616c726561647920736f6c640000000000000000000000600082015250565b600061573e601583615464565b915061574982615708565b602082019050919050565b6000602082019050818103600083015261576d81615731565b9050919050565b7f596f752063616e206f6e6c792063616e63656c20756e736f6c64204e4654732060008201527f7468617420796f75206f776e2e00000000000000000000000000000000000000602082015250565b60006157d0602d83615464565b91506157db82615774565b604082019050919050565b600060208201905081810360008301526157ff816157c3565b9050919050565b6000819050919050565b600061582b615826615821846148e0565b615806565b6148e0565b9050919050565b600061583d82615810565b9050919050565b600061584f82615832565b9050919050565b61585f81615844565b82525050565b600060608201905061587a6000830186615856565b615887602083018561515d565b615894604083018461515d565b949350505050565b6000815190506158ab81614948565b92915050565b6000815190506158c081614a3a565b92915050565b600080600080608085870312156158e0576158df6148d6565b5b60006158ee8782880161589c565b94505060206158ff878288016158b1565b93505060406159108782880161589c565b92505060606159218782880161589c565b91505092959194509250565b7f4e487b7100000000000000000000000000000000000000000000000000000000600052604160045260246000fd5b60008151905061596b81614912565b92915050565b600060208284031215615987576159866148d6565b5b60006159958482850161595c565b91505092915050565b6000819050919050565b6159b18161599e565b82525050565b60006020820190506159cc60008301846159a8565b92915050565b60006159dd82614900565b9050919050565b6159ed816159d2565b81146159f857600080fd5b50565b600081519050615a0a816159e4565b92915050565b600060208284031215615a2657615a256148d6565b5b6000615a34848285016159fb565b91505092915050565b7f4e487b7100000000000000000000000000000000000000000000000000000000600052600160045260246000fd5b600081519050919050565b600082825260208201905092915050565b60005b83811015615aa6578082015181840152602081019050615a8b565b60008484015250505050565b6000601f19601f8301169050919050565b6000615ace82615a6c565b615ad88185615a77565b9350615ae8818560208601615a88565b615af181615ab2565b840191505092915050565b6000608082019050615b116000830187615856565b615b1e602083018661515d565b615b2b60408301856151cd565b8181036060830152615b3d8184615ac3565b905095945050505050565b6000615b5382615832565b9050919050565b615b6381615b48565b82525050565b6000606082019050615b7e6000830186615b5a565b8181036020830152615b908185615ac3565b90508181036040830152615ba48184615ac3565b9050949350505050565b600080fd5b615bbc82615ab2565b810181811067ffffffffffffffff82111715615bdb57615bda61592d565b5b80604052505050565b6000615bee6148cc565b9050615bfa8282615bb3565b919050565b600067ffffffffffffffff821115615c1a57615c1961592d565b5b615c2382615ab2565b9050602081019050919050565b6000615c43615c3e84615bff565b615be4565b905082815260208101848484011115615c5f57615c5e615bae565b5b615c6a848285615a88565b509392505050565b600082601f830112615c8757615c86614b1c565b5b8151615c97848260208601615c30565b91505092915050565b600060208284031215615cb657615cb56148d6565b5b600082015167ffffffffffffffff811115615cd457615cd36148db565b5b615ce084828501615c72565b91505092915050565b600060a082019050615cfe6000830188615856565b615d0b602083018761515d565b615d18604083018661515d565b615d2560608301856151cd565b8181036080830152615d378184615ac3565b90509695505050505050565b6000608082019050615d586000830187615856565b615d65602083018661515d565b615d72604083018561515d565b8181036060830152615d848184615ac3565b90509594505050505056fea2646970667358221220ca36aa402ddaf6b0d00cf4c143dce8fd7945f36a5f8f5343a24c7dafdae6852864736f6c63430008120033",
  "linkReferences": {},
  "deployedLinkReferences": {}
}